{
  "_format": "hh-sol-artifact-1",
  "contractName": "FreeDOOMRocket",
  "sourceName": "contracts/FreeDOOMRocket.sol",
  "abi": [
    {
      "inputs": [],
      "stateMutability": "nonpayable",
      "type": "constructor"
    },
    {
      "anonymous": false,
      "inputs": [
        {
          "indexed": true,
          "internalType": "address",
          "name": "owner",
          "type": "address"
        },
        {
          "indexed": true,
          "internalType": "address",
          "name": "approved",
          "type": "address"
        },
        {
          "indexed": true,
          "internalType": "uint256",
          "name": "tokenId",
          "type": "uint256"
        }
      ],
      "name": "Approval",
      "type": "event"
    },
    {
      "anonymous": false,
      "inputs": [
        {
          "indexed": true,
          "internalType": "address",
          "name": "owner",
          "type": "address"
        },
        {
          "indexed": true,
          "internalType": "address",
          "name": "operator",
          "type": "address"
        },
        {
          "indexed": false,
          "internalType": "bool",
          "name": "approved",
          "type": "bool"
        }
      ],
      "name": "ApprovalForAll",
      "type": "event"
    },
    {
      "anonymous": false,
      "inputs": [
        {
          "indexed": true,
          "internalType": "address",
          "name": "previousOwner",
          "type": "address"
        },
        {
          "indexed": true,
          "internalType": "address",
          "name": "newOwner",
          "type": "address"
        }
      ],
      "name": "OwnershipTransferred",
      "type": "event"
    },
    {
      "anonymous": false,
      "inputs": [
        {
          "indexed": true,
          "internalType": "address",
          "name": "from",
          "type": "address"
        },
        {
          "indexed": true,
          "internalType": "address",
          "name": "to",
          "type": "address"
        },
        {
          "indexed": true,
          "internalType": "uint256",
          "name": "tokenId",
          "type": "uint256"
        }
      ],
      "name": "Transfer",
      "type": "event"
    },
    {
      "inputs": [
        {
          "internalType": "address",
          "name": "to",
          "type": "address"
        },
        {
          "internalType": "uint256",
          "name": "tokenId",
          "type": "uint256"
        }
      ],
      "name": "approve",
      "outputs": [],
      "stateMutability": "nonpayable",
      "type": "function"
    },
    {
      "inputs": [
        {
          "internalType": "address",
          "name": "owner",
          "type": "address"
        }
      ],
      "name": "balanceOf",
      "outputs": [
        {
          "internalType": "uint256",
          "name": "",
          "type": "uint256"
        }
      ],
      "stateMutability": "view",
      "type": "function"
    },
    {
      "inputs": [],
      "name": "daysSinceCreation",
      "outputs": [
        {
          "internalType": "uint256",
          "name": "",
          "type": "uint256"
        }
      ],
      "stateMutability": "view",
      "type": "function"
    },
    {
      "inputs": [
        {
          "internalType": "uint256",
          "name": "tokenId",
          "type": "uint256"
        }
      ],
      "name": "getApproved",
      "outputs": [
        {
          "internalType": "address",
          "name": "",
          "type": "address"
        }
      ],
      "stateMutability": "view",
      "type": "function"
    },
    {
      "inputs": [
        {
          "internalType": "address",
          "name": "owner",
          "type": "address"
        },
        {
          "internalType": "address",
          "name": "operator",
          "type": "address"
        }
      ],
      "name": "isApprovedForAll",
      "outputs": [
        {
          "internalType": "bool",
          "name": "",
          "type": "bool"
        }
      ],
      "stateMutability": "view",
      "type": "function"
    },
    {
      "inputs": [
        {
          "internalType": "address",
          "name": "recipient",
          "type": "address"
        }
      ],
      "name": "mintFreeDOOMRocket",
      "outputs": [
        {
          "internalType": "uint256",
          "name": "",
          "type": "uint256"
        }
      ],
      "stateMutability": "nonpayable",
      "type": "function"
    },
    {
      "inputs": [],
      "name": "name",
      "outputs": [
        {
          "internalType": "string",
          "name": "",
          "type": "string"
        }
      ],
      "stateMutability": "view",
      "type": "function"
    },
    {
      "inputs": [],
      "name": "owner",
      "outputs": [
        {
          "internalType": "address",
          "name": "",
          "type": "address"
        }
      ],
      "stateMutability": "view",
      "type": "function"
    },
    {
      "inputs": [
        {
          "internalType": "uint256",
          "name": "tokenId",
          "type": "uint256"
        }
      ],
      "name": "ownerOf",
      "outputs": [
        {
          "internalType": "address",
          "name": "",
          "type": "address"
        }
      ],
      "stateMutability": "view",
      "type": "function"
    },
    {
      "inputs": [],
      "name": "renounceOwnership",
      "outputs": [],
      "stateMutability": "nonpayable",
      "type": "function"
    },
    {
      "inputs": [
        {
          "internalType": "address",
          "name": "from",
          "type": "address"
        },
        {
          "internalType": "address",
          "name": "to",
          "type": "address"
        },
        {
          "internalType": "uint256",
          "name": "tokenId",
          "type": "uint256"
        }
      ],
      "name": "safeTransferFrom",
      "outputs": [],
      "stateMutability": "nonpayable",
      "type": "function"
    },
    {
      "inputs": [
        {
          "internalType": "address",
          "name": "from",
          "type": "address"
        },
        {
          "internalType": "address",
          "name": "to",
          "type": "address"
        },
        {
          "internalType": "uint256",
          "name": "tokenId",
          "type": "uint256"
        },
        {
          "internalType": "bytes",
          "name": "_data",
          "type": "bytes"
        }
      ],
      "name": "safeTransferFrom",
      "outputs": [],
      "stateMutability": "nonpayable",
      "type": "function"
    },
    {
      "inputs": [
        {
          "internalType": "address",
          "name": "operator",
          "type": "address"
        },
        {
          "internalType": "bool",
          "name": "approved",
          "type": "bool"
        }
      ],
      "name": "setApprovalForAll",
      "outputs": [],
      "stateMutability": "nonpayable",
      "type": "function"
    },
    {
      "inputs": [
        {
          "internalType": "bytes4",
          "name": "interfaceId",
          "type": "bytes4"
        }
      ],
      "name": "supportsInterface",
      "outputs": [
        {
          "internalType": "bool",
          "name": "",
          "type": "bool"
        }
      ],
      "stateMutability": "view",
      "type": "function"
    },
    {
      "inputs": [],
      "name": "symbol",
      "outputs": [
        {
          "internalType": "string",
          "name": "",
          "type": "string"
        }
      ],
      "stateMutability": "view",
      "type": "function"
    },
    {
      "inputs": [
        {
          "internalType": "uint256",
          "name": "tokenId",
          "type": "uint256"
        }
      ],
      "name": "tokenURI",
      "outputs": [
        {
          "internalType": "string",
          "name": "",
          "type": "string"
        }
      ],
      "stateMutability": "view",
      "type": "function"
    },
    {
      "inputs": [
        {
          "internalType": "address",
          "name": "from",
          "type": "address"
        },
        {
          "internalType": "address",
          "name": "to",
          "type": "address"
        },
        {
          "internalType": "uint256",
          "name": "tokenId",
          "type": "uint256"
        }
      ],
      "name": "transferFrom",
      "outputs": [],
      "stateMutability": "nonpayable",
      "type": "function"
    },
    {
      "inputs": [
        {
          "internalType": "address",
          "name": "newOwner",
          "type": "address"
        }
      ],
      "name": "transferOwnership",
      "outputs": [],
      "stateMutability": "nonpayable",
      "type": "function"
    }
  ],
  "bytecode": "0x608060405260405180606001604052806040518060600160405280602e815260200162002ef3602e913981526020016040518060600160405280602e815260200162002f21602e913981526020016040518060600160405280602e815260200162002ef3602e913981525060099060036200007c929190620001cb565b503480156200008a57600080fd5b506040518060400160405280601681526020017f4c4f47494b3a2046726565444f4f4d20526f636b657400000000000000000000815250604051806020016040528060008152508160009080519060200190620000e992919062000225565b5080600190805190602001906200010292919062000225565b505050600062000117620001c360201b60201c565b905080600660006101000a81548173ffffffffffffffffffffffffffffffffffffffff021916908373ffffffffffffffffffffffffffffffffffffffff1602179055508073ffffffffffffffffffffffffffffffffffffffff16600073ffffffffffffffffffffffffffffffffffffffff167f8be0079c531659141344cd1fd0a4f28419497f9722a3daafe3b4186f6b6457e060405160405180910390a35042600881905550620003a8565b600033905090565b826003810192821562000212579160200282015b82811115620002115782518290805190602001906200020092919062000225565b5091602001919060010190620001df565b5b509050620002219190620002b6565b5090565b828054620002339062000343565b90600052602060002090601f016020900481019282620002575760008555620002a3565b82601f106200027257805160ff1916838001178555620002a3565b82800160010185558215620002a3579182015b82811115620002a257825182559160200191906001019062000285565b5b509050620002b29190620002de565b5090565b5b80821115620002da5760008181620002d09190620002fd565b50600101620002b7565b5090565b5b80821115620002f9576000816000905550600101620002df565b5090565b5080546200030b9062000343565b6000825580601f106200031f575062000340565b601f0160209004906000526020600020908101906200033f9190620002de565b5b50565b600060028204905060018216806200035c57607f821691505b6020821081141562000373576200037262000379565b5b50919050565b7f4e487b7100000000000000000000000000000000000000000000000000000000600052602260045260246000fd5b612b3b80620003b86000396000f3fe608060405234801561001057600080fd5b50600436106101165760003560e01c806370a08231116100a2578063a22cb46511610071578063a22cb465146102e1578063b88d4fde146102fd578063c87b56dd14610319578063e985e9c514610349578063f2fde38b1461037957610116565b806370a082311461026b578063715018a61461029b5780638da5cb5b146102a557806395d89b41146102c357610116565b80630bfbe4e7116100e95780630bfbe4e7146101b557806323b872dd146101d357806342842e0e146101ef5780635250c59a1461020b5780636352211e1461023b57610116565b806301ffc9a71461011b57806306fdde031461014b578063081812fc14610169578063095ea7b314610199575b600080fd5b61013560048036038101906101309190611cb8565b610395565b60405161014291906124d5565b60405180910390f35b610153610477565b60405161016091906124f0565b60405180910390f35b610183600480360381019061017e9190611d0a565b610509565b604051610190919061246e565b60405180910390f35b6101b360048036038101906101ae9190611c7c565b61058e565b005b6101bd6106a6565b6040516101ca9190612712565b60405180910390f35b6101ed60048036038101906101e89190611b76565b6106de565b005b61020960048036038101906102049190611b76565b61073e565b005b61022560048036038101906102209190611b11565b61075e565b6040516102329190612712565b60405180910390f35b61025560048036038101906102509190611d0a565b610807565b604051610262919061246e565b60405180910390f35b61028560048036038101906102809190611b11565b6108b9565b6040516102929190612712565b60405180910390f35b6102a3610971565b005b6102ad610aae565b6040516102ba919061246e565b60405180910390f35b6102cb610ad8565b6040516102d891906124f0565b60405180910390f35b6102fb60048036038101906102f69190611c40565b610b6a565b005b61031760048036038101906103129190611bc5565b610ceb565b005b610333600480360381019061032e9190611d0a565b610d4d565b60405161034091906124f0565b60405180910390f35b610363600480360381019061035e9190611b3a565b610e99565b60405161037091906124d5565b60405180910390f35b610393600480360381019061038e9190611b11565b610f2d565b005b60007f80ac58cd000000000000000000000000000000000000000000000000000000007bffffffffffffffffffffffffffffffffffffffffffffffffffffffff1916827bffffffffffffffffffffffffffffffffffffffffffffffffffffffff1916148061046057507f5b5e139f000000000000000000000000000000000000000000000000000000007bffffffffffffffffffffffffffffffffffffffffffffffffffffffff1916827bffffffffffffffffffffffffffffffffffffffffffffffffffffffff1916145b80610470575061046f826110d9565b5b9050919050565b60606000805461048690612957565b80601f01602080910402602001604051908101604052809291908181526020018280546104b290612957565b80156104ff5780601f106104d4576101008083540402835291602001916104ff565b820191906000526020600020905b8154815290600101906020018083116104e257829003601f168201915b5050505050905090565b600061051482611143565b610553576040517f08c379a000000000000000000000000000000000000000000000000000000000815260040161054a90612652565b60405180910390fd5b6004600083815260200190815260200160002060009054906101000a900473ffffffffffffffffffffffffffffffffffffffff169050919050565b600061059982610807565b90508073ffffffffffffffffffffffffffffffffffffffff168373ffffffffffffffffffffffffffffffffffffffff16141561060a576040517f08c379a0000000000000000000000000000000000000000000000000000000008152600401610601906126d2565b60405180910390fd5b8073ffffffffffffffffffffffffffffffffffffffff166106296111af565b73ffffffffffffffffffffffffffffffffffffffff1614806106585750610657816106526111af565b610e99565b5b610697576040517f08c379a000000000000000000000000000000000000000000000000000000000815260040161068e906125d2565b60405180910390fd5b6106a183836111b7565b505050565b60006018603c80600854426106bb919061286d565b6106c5919061283c565b6106cf919061283c565b6106d9919061283c565b905090565b6106ef6106e96111af565b82611270565b61072e576040517f08c379a0000000000000000000000000000000000000000000000000000000008152600401610725906126f2565b60405180910390fd5b61073983838361134e565b505050565b61075983838360405180602001604052806000815250610ceb565b505050565b60006107686111af565b73ffffffffffffffffffffffffffffffffffffffff16610786610aae565b73ffffffffffffffffffffffffffffffffffffffff16146107dc576040517f08c379a00000000000000000000000000000000000000000000000000000000081526004016107d390612672565b60405180910390fd5b6107e660076115aa565b60006107f260076115c0565b90506107fe83826115ce565b80915050919050565b6000806002600084815260200190815260200160002060009054906101000a900473ffffffffffffffffffffffffffffffffffffffff169050600073ffffffffffffffffffffffffffffffffffffffff168173ffffffffffffffffffffffffffffffffffffffff1614156108b0576040517f08c379a00000000000000000000000000000000000000000000000000000000081526004016108a790612612565b60405180910390fd5b80915050919050565b60008073ffffffffffffffffffffffffffffffffffffffff168273ffffffffffffffffffffffffffffffffffffffff16141561092a576040517f08c379a0000000000000000000000000000000000000000000000000000000008152600401610921906125f2565b60405180910390fd5b600360008373ffffffffffffffffffffffffffffffffffffffff1673ffffffffffffffffffffffffffffffffffffffff168152602001908152602001600020549050919050565b6109796111af565b73ffffffffffffffffffffffffffffffffffffffff16610997610aae565b73ffffffffffffffffffffffffffffffffffffffff16146109ed576040517f08c379a00000000000000000000000000000000000000000000000000000000081526004016109e490612672565b60405180910390fd5b600073ffffffffffffffffffffffffffffffffffffffff16600660009054906101000a900473ffffffffffffffffffffffffffffffffffffffff1673ffffffffffffffffffffffffffffffffffffffff167f8be0079c531659141344cd1fd0a4f28419497f9722a3daafe3b4186f6b6457e060405160405180910390a36000600660006101000a81548173ffffffffffffffffffffffffffffffffffffffff021916908373ffffffffffffffffffffffffffffffffffffffff160217905550565b6000600660009054906101000a900473ffffffffffffffffffffffffffffffffffffffff16905090565b606060018054610ae790612957565b80601f0160208091040260200160405190810160405280929190818152602001828054610b1390612957565b8015610b605780601f10610b3557610100808354040283529160200191610b60565b820191906000526020600020905b815481529060010190602001808311610b4357829003601f168201915b5050505050905090565b610b726111af565b73ffffffffffffffffffffffffffffffffffffffff168273ffffffffffffffffffffffffffffffffffffffff161415610be0576040517f08c379a0000000000000000000000000000000000000000000000000000000008152600401610bd790612592565b60405180910390fd5b8060056000610bed6111af565b73ffffffffffffffffffffffffffffffffffffffff1673ffffffffffffffffffffffffffffffffffffffff16815260200190815260200160002060008473ffffffffffffffffffffffffffffffffffffffff1673ffffffffffffffffffffffffffffffffffffffff16815260200190815260200160002060006101000a81548160ff0219169083151502179055508173ffffffffffffffffffffffffffffffffffffffff16610c9a6111af565b73ffffffffffffffffffffffffffffffffffffffff167f17307eab39ab6107e8899845ad3d59bd9653f200f220920489ca2b5937696c3183604051610cdf91906124d5565b60405180910390a35050565b610cfc610cf66111af565b83611270565b610d3b576040517f08c379a0000000000000000000000000000000000000000000000000000000008152600401610d32906126f2565b60405180910390fd5b610d47848484846115ec565b50505050565b6060610d5882611143565b610d97576040517f08c379a0000000000000000000000000000000000000000000000000000000008152600401610d8e906126b2565b60405180910390fd5b6000610da1611648565b9050600042905060006018603c8060085485610dbd919061286d565b610dc7919061283c565b610dd1919061283c565b610ddb919061283c565b90506000600382610dec9190612989565b905080600011158015610dff5750600381105b610e32577f4e487b7100000000000000000000000000000000000000000000000000000000600052600160045260246000fd5b8360098260038110610e6d577f4e487b7100000000000000000000000000000000000000000000000000000000600052603260045260246000fd5b01604051602001610e7f92919061244a565b604051602081830303815290604052945050505050919050565b6000600560008473ffffffffffffffffffffffffffffffffffffffff1673ffffffffffffffffffffffffffffffffffffffff16815260200190815260200160002060008373ffffffffffffffffffffffffffffffffffffffff1673ffffffffffffffffffffffffffffffffffffffff16815260200190815260200160002060009054906101000a900460ff16905092915050565b610f356111af565b73ffffffffffffffffffffffffffffffffffffffff16610f53610aae565b73ffffffffffffffffffffffffffffffffffffffff1614610fa9576040517f08c379a0000000000000000000000000000000000000000000000000000000008152600401610fa090612672565b60405180910390fd5b600073ffffffffffffffffffffffffffffffffffffffff168173ffffffffffffffffffffffffffffffffffffffff161415611019576040517f08c379a000000000000000000000000000000000000000000000000000000000815260040161101090612532565b60405180910390fd5b8073ffffffffffffffffffffffffffffffffffffffff16600660009054906101000a900473ffffffffffffffffffffffffffffffffffffffff1673ffffffffffffffffffffffffffffffffffffffff167f8be0079c531659141344cd1fd0a4f28419497f9722a3daafe3b4186f6b6457e060405160405180910390a380600660006101000a81548173ffffffffffffffffffffffffffffffffffffffff021916908373ffffffffffffffffffffffffffffffffffffffff16021790555050565b60007f01ffc9a7000000000000000000000000000000000000000000000000000000007bffffffffffffffffffffffffffffffffffffffffffffffffffffffff1916827bffffffffffffffffffffffffffffffffffffffffffffffffffffffff1916149050919050565b60008073ffffffffffffffffffffffffffffffffffffffff166002600084815260200190815260200160002060009054906101000a900473ffffffffffffffffffffffffffffffffffffffff1673ffffffffffffffffffffffffffffffffffffffff1614159050919050565b600033905090565b816004600083815260200190815260200160002060006101000a81548173ffffffffffffffffffffffffffffffffffffffff021916908373ffffffffffffffffffffffffffffffffffffffff160217905550808273ffffffffffffffffffffffffffffffffffffffff1661122a83610807565b73ffffffffffffffffffffffffffffffffffffffff167f8c5be1e5ebec7d5bd14f71427d1e84f3dd0314c0f7b2291e5b200ac8c7c3b92560405160405180910390a45050565b600061127b82611143565b6112ba576040517f08c379a00000000000000000000000000000000000000000000000000000000081526004016112b1906125b2565b60405180910390fd5b60006112c583610807565b90508073ffffffffffffffffffffffffffffffffffffffff168473ffffffffffffffffffffffffffffffffffffffff16148061133457508373ffffffffffffffffffffffffffffffffffffffff1661131c84610509565b73ffffffffffffffffffffffffffffffffffffffff16145b8061134557506113448185610e99565b5b91505092915050565b8273ffffffffffffffffffffffffffffffffffffffff1661136e82610807565b73ffffffffffffffffffffffffffffffffffffffff16146113c4576040517f08c379a00000000000000000000000000000000000000000000000000000000081526004016113bb90612692565b60405180910390fd5b600073ffffffffffffffffffffffffffffffffffffffff168273ffffffffffffffffffffffffffffffffffffffff161415611434576040517f08c379a000000000000000000000000000000000000000000000000000000000815260040161142b90612572565b60405180910390fd5b61143f838383611668565b61144a6000826111b7565b6001600360008573ffffffffffffffffffffffffffffffffffffffff1673ffffffffffffffffffffffffffffffffffffffff168152602001908152602001600020600082825461149a919061286d565b925050819055506001600360008473ffffffffffffffffffffffffffffffffffffffff1673ffffffffffffffffffffffffffffffffffffffff16815260200190815260200160002060008282546114f191906127e6565b92505081905550816002600083815260200190815260200160002060006101000a81548173ffffffffffffffffffffffffffffffffffffffff021916908373ffffffffffffffffffffffffffffffffffffffff160217905550808273ffffffffffffffffffffffffffffffffffffffff168473ffffffffffffffffffffffffffffffffffffffff167fddf252ad1be2c89b69c2b068fc378daa952ba7f163c4a11628f55a4df523b3ef60405160405180910390a4505050565b6001816000016000828254019250508190555050565b600081600001549050919050565b6115e882826040518060200160405280600081525061166d565b5050565b6115f784848461134e565b611603848484846116c8565b611642576040517f08c379a000000000000000000000000000000000000000000000000000000000815260040161163990612512565b60405180910390fd5b50505050565b6060604051806060016040528060228152602001612ae460229139905090565b505050565b611677838361185f565b61168460008484846116c8565b6116c3576040517f08c379a00000000000000000000000000000000000000000000000000000000081526004016116ba90612512565b60405180910390fd5b505050565b60006116e98473ffffffffffffffffffffffffffffffffffffffff16611a2d565b15611852578373ffffffffffffffffffffffffffffffffffffffff1663150b7a026117126111af565b8786866040518563ffffffff1660e01b81526004016117349493929190612489565b602060405180830381600087803b15801561174e57600080fd5b505af192505050801561177f57506040513d601f19601f8201168201806040525081019061177c9190611ce1565b60015b611802573d80600081146117af576040519150601f19603f3d011682016040523d82523d6000602084013e6117b4565b606091505b506000815114156117fa576040517f08c379a00000000000000000000000000000000000000000000000000000000081526004016117f190612512565b60405180910390fd5b805181602001fd5b63150b7a0260e01b7bffffffffffffffffffffffffffffffffffffffffffffffffffffffff1916817bffffffffffffffffffffffffffffffffffffffffffffffffffffffff191614915050611857565b600190505b949350505050565b600073ffffffffffffffffffffffffffffffffffffffff168273ffffffffffffffffffffffffffffffffffffffff1614156118cf576040517f08c379a00000000000000000000000000000000000000000000000000000000081526004016118c690612632565b60405180910390fd5b6118d881611143565b15611918576040517f08c379a000000000000000000000000000000000000000000000000000000000815260040161190f90612552565b60405180910390fd5b61192460008383611668565b6001600360008473ffffffffffffffffffffffffffffffffffffffff1673ffffffffffffffffffffffffffffffffffffffff168152602001908152602001600020600082825461197491906127e6565b92505081905550816002600083815260200190815260200160002060006101000a81548173ffffffffffffffffffffffffffffffffffffffff021916908373ffffffffffffffffffffffffffffffffffffffff160217905550808273ffffffffffffffffffffffffffffffffffffffff16600073ffffffffffffffffffffffffffffffffffffffff167fddf252ad1be2c89b69c2b068fc378daa952ba7f163c4a11628f55a4df523b3ef60405160405180910390a45050565b600080823b905060008111915050919050565b6000611a53611a4e8461275e565b61272d565b905082815260208101848484011115611a6b57600080fd5b611a76848285612915565b509392505050565b600081359050611a8d81612a87565b92915050565b600081359050611aa281612a9e565b92915050565b600081359050611ab781612ab5565b92915050565b600081519050611acc81612ab5565b92915050565b600082601f830112611ae357600080fd5b8135611af3848260208601611a40565b91505092915050565b600081359050611b0b81612acc565b92915050565b600060208284031215611b2357600080fd5b6000611b3184828501611a7e565b91505092915050565b60008060408385031215611b4d57600080fd5b6000611b5b85828601611a7e565b9250506020611b6c85828601611a7e565b9150509250929050565b600080600060608486031215611b8b57600080fd5b6000611b9986828701611a7e565b9350506020611baa86828701611a7e565b9250506040611bbb86828701611afc565b9150509250925092565b60008060008060808587031215611bdb57600080fd5b6000611be987828801611a7e565b9450506020611bfa87828801611a7e565b9350506040611c0b87828801611afc565b925050606085013567ffffffffffffffff811115611c2857600080fd5b611c3487828801611ad2565b91505092959194509250565b60008060408385031215611c5357600080fd5b6000611c6185828601611a7e565b9250506020611c7285828601611a93565b9150509250929050565b60008060408385031215611c8f57600080fd5b6000611c9d85828601611a7e565b9250506020611cae85828601611afc565b9150509250929050565b600060208284031215611cca57600080fd5b6000611cd884828501611aa8565b91505092915050565b600060208284031215611cf357600080fd5b6000611d0184828501611abd565b91505092915050565b600060208284031215611d1c57600080fd5b6000611d2a84828501611afc565b91505092915050565b611d3c816128a1565b82525050565b611d4b816128b3565b82525050565b6000611d5c826127a3565b611d6681856127b9565b9350611d76818560208601612924565b611d7f81612a76565b840191505092915050565b6000611d95826127ae565b611d9f81856127ca565b9350611daf818560208601612924565b611db881612a76565b840191505092915050565b6000611dce826127ae565b611dd881856127db565b9350611de8818560208601612924565b80840191505092915050565b60008154611e0181612957565b611e0b81866127db565b94506001821660008114611e265760018114611e3757611e6a565b60ff19831686528186019350611e6a565b611e408561278e565b60005b83811015611e6257815481890152600182019150602081019050611e43565b838801955050505b50505092915050565b6000611e806032836127ca565b91507f4552433732313a207472616e7366657220746f206e6f6e20455243373231526560008301527f63656976657220696d706c656d656e74657200000000000000000000000000006020830152604082019050919050565b6000611ee66026836127ca565b91507f4f776e61626c653a206e6577206f776e657220697320746865207a65726f206160008301527f64647265737300000000000000000000000000000000000000000000000000006020830152604082019050919050565b6000611f4c601c836127ca565b91507f4552433732313a20746f6b656e20616c7265616479206d696e746564000000006000830152602082019050919050565b6000611f8c6024836127ca565b91507f4552433732313a207472616e7366657220746f20746865207a65726f2061646460008301527f72657373000000000000000000000000000000000000000000000000000000006020830152604082019050919050565b6000611ff26019836127ca565b91507f4552433732313a20617070726f766520746f2063616c6c6572000000000000006000830152602082019050919050565b6000612032602c836127ca565b91507f4552433732313a206f70657261746f7220717565727920666f72206e6f6e657860008301527f697374656e7420746f6b656e00000000000000000000000000000000000000006020830152604082019050919050565b60006120986038836127ca565b91507f4552433732313a20617070726f76652063616c6c6572206973206e6f74206f7760008301527f6e6572206e6f7220617070726f76656420666f7220616c6c00000000000000006020830152604082019050919050565b60006120fe602a836127ca565b91507f4552433732313a2062616c616e636520717565727920666f7220746865207a6560008301527f726f2061646472657373000000000000000000000000000000000000000000006020830152604082019050919050565b60006121646029836127ca565b91507f4552433732313a206f776e657220717565727920666f72206e6f6e657869737460008301527f656e7420746f6b656e00000000000000000000000000000000000000000000006020830152604082019050919050565b60006121ca6020836127ca565b91507f4552433732313a206d696e7420746f20746865207a65726f20616464726573736000830152602082019050919050565b600061220a602c836127ca565b91507f4552433732313a20617070726f76656420717565727920666f72206e6f6e657860008301527f697374656e7420746f6b656e00000000000000000000000000000000000000006020830152604082019050919050565b60006122706020836127ca565b91507f4f776e61626c653a2063616c6c6572206973206e6f7420746865206f776e65726000830152602082019050919050565b60006122b06029836127ca565b91507f4552433732313a207472616e73666572206f6620746f6b656e2074686174206960008301527f73206e6f74206f776e00000000000000000000000000000000000000000000006020830152604082019050919050565b6000612316602f836127ca565b91507f4552433732314d657461646174613a2055524920717565727920666f72206e6f60008301527f6e6578697374656e7420746f6b656e00000000000000000000000000000000006020830152604082019050919050565b600061237c6021836127ca565b91507f4552433732313a20617070726f76616c20746f2063757272656e74206f776e6560008301527f72000000000000000000000000000000000000000000000000000000000000006020830152604082019050919050565b60006123e26031836127ca565b91507f4552433732313a207472616e736665722063616c6c6572206973206e6f74206f60008301527f776e6572206e6f7220617070726f7665640000000000000000000000000000006020830152604082019050919050565b6124448161290b565b82525050565b60006124568285611dc3565b91506124628284611df4565b91508190509392505050565b60006020820190506124836000830184611d33565b92915050565b600060808201905061249e6000830187611d33565b6124ab6020830186611d33565b6124b8604083018561243b565b81810360608301526124ca8184611d51565b905095945050505050565b60006020820190506124ea6000830184611d42565b92915050565b6000602082019050818103600083015261250a8184611d8a565b905092915050565b6000602082019050818103600083015261252b81611e73565b9050919050565b6000602082019050818103600083015261254b81611ed9565b9050919050565b6000602082019050818103600083015261256b81611f3f565b9050919050565b6000602082019050818103600083015261258b81611f7f565b9050919050565b600060208201905081810360008301526125ab81611fe5565b9050919050565b600060208201905081810360008301526125cb81612025565b9050919050565b600060208201905081810360008301526125eb8161208b565b9050919050565b6000602082019050818103600083015261260b816120f1565b9050919050565b6000602082019050818103600083015261262b81612157565b9050919050565b6000602082019050818103600083015261264b816121bd565b9050919050565b6000602082019050818103600083015261266b816121fd565b9050919050565b6000602082019050818103600083015261268b81612263565b9050919050565b600060208201905081810360008301526126ab816122a3565b9050919050565b600060208201905081810360008301526126cb81612309565b9050919050565b600060208201905081810360008301526126eb8161236f565b9050919050565b6000602082019050818103600083015261270b816123d5565b9050919050565b6000602082019050612727600083018461243b565b92915050565b6000604051905081810181811067ffffffffffffffff8211171561275457612753612a47565b5b8060405250919050565b600067ffffffffffffffff82111561277957612778612a47565b5b601f19601f8301169050602081019050919050565b60008190508160005260206000209050919050565b600081519050919050565b600081519050919050565b600082825260208201905092915050565b600082825260208201905092915050565b600081905092915050565b60006127f18261290b565b91506127fc8361290b565b9250827fffffffffffffffffffffffffffffffffffffffffffffffffffffffffffffffff03821115612831576128306129ba565b5b828201905092915050565b60006128478261290b565b91506128528361290b565b925082612862576128616129e9565b5b828204905092915050565b60006128788261290b565b91506128838361290b565b925082821015612896576128956129ba565b5b828203905092915050565b60006128ac826128eb565b9050919050565b60008115159050919050565b60007fffffffff0000000000000000000000000000000000000000000000000000000082169050919050565b600073ffffffffffffffffffffffffffffffffffffffff82169050919050565b6000819050919050565b82818337600083830152505050565b60005b83811015612942578082015181840152602081019050612927565b83811115612951576000848401525b50505050565b6000600282049050600182168061296f57607f821691505b6020821081141561298357612982612a18565b5b50919050565b60006129948261290b565b915061299f8361290b565b9250826129af576129ae6129e9565b5b828206905092915050565b7f4e487b7100000000000000000000000000000000000000000000000000000000600052601160045260246000fd5b7f4e487b7100000000000000000000000000000000000000000000000000000000600052601260045260246000fd5b7f4e487b7100000000000000000000000000000000000000000000000000000000600052602260045260246000fd5b7f4e487b7100000000000000000000000000000000000000000000000000000000600052604160045260246000fd5b6000601f19601f8301169050919050565b612a90816128a1565b8114612a9b57600080fd5b50565b612aa7816128b3565b8114612ab257600080fd5b50565b612abe816128bf565b8114612ac957600080fd5b50565b612ad58161290b565b8114612ae057600080fd5b5056fe68747470733a2f2f676174657761792e70696e6174612e636c6f75642f697066732fa264697066735822122075014cee64b982f8af1b87d2feb8a0ae9bb8fc32f7292bd7fe4616e266f1bb2b64736f6c63430008000033516d576f67507a7447586957367462436345666b326d3831396e31515072514b3745566e78675a64505652555044516d4e61774b474e5178776554457a4b41444d6f71586241737943445952334b57627343737472617a4b62774643",
  "linkReferences": {},
  "deployedLinkReferences": {}
}