{
  "_format": "hh-sol-artifact-1",
  "contractName": "Breffis",
  "sourceName": "contracts/Breffis.sol",
  "abi": [
    {
      "inputs": [],
      "stateMutability": "nonpayable",
      "type": "constructor"
    },
    {
      "anonymous": false,
      "inputs": [
        {
          "indexed": true,
          "internalType": "address",
          "name": "owner",
          "type": "address"
        },
        {
          "indexed": true,
          "internalType": "address",
          "name": "approved",
          "type": "address"
        },
        {
          "indexed": true,
          "internalType": "uint256",
          "name": "tokenId",
          "type": "uint256"
        }
      ],
      "name": "Approval",
      "type": "event"
    },
    {
      "anonymous": false,
      "inputs": [
        {
          "indexed": true,
          "internalType": "address",
          "name": "owner",
          "type": "address"
        },
        {
          "indexed": true,
          "internalType": "address",
          "name": "operator",
          "type": "address"
        },
        {
          "indexed": false,
          "internalType": "bool",
          "name": "approved",
          "type": "bool"
        }
      ],
      "name": "ApprovalForAll",
      "type": "event"
    },
    {
      "anonymous": false,
      "inputs": [
        {
          "indexed": true,
          "internalType": "address",
          "name": "previousOwner",
          "type": "address"
        },
        {
          "indexed": true,
          "internalType": "address",
          "name": "newOwner",
          "type": "address"
        }
      ],
      "name": "OwnershipTransferred",
      "type": "event"
    },
    {
      "anonymous": false,
      "inputs": [
        {
          "indexed": true,
          "internalType": "address",
          "name": "from",
          "type": "address"
        },
        {
          "indexed": true,
          "internalType": "address",
          "name": "to",
          "type": "address"
        },
        {
          "indexed": true,
          "internalType": "uint256",
          "name": "tokenId",
          "type": "uint256"
        }
      ],
      "name": "Transfer",
      "type": "event"
    },
    {
      "inputs": [
        {
          "internalType": "address",
          "name": "to",
          "type": "address"
        },
        {
          "internalType": "uint256",
          "name": "tokenId",
          "type": "uint256"
        }
      ],
      "name": "approve",
      "outputs": [],
      "stateMutability": "nonpayable",
      "type": "function"
    },
    {
      "inputs": [
        {
          "internalType": "address",
          "name": "owner",
          "type": "address"
        }
      ],
      "name": "balanceOf",
      "outputs": [
        {
          "internalType": "uint256",
          "name": "",
          "type": "uint256"
        }
      ],
      "stateMutability": "view",
      "type": "function"
    },
    {
      "inputs": [
        {
          "internalType": "uint256",
          "name": "tokenId",
          "type": "uint256"
        }
      ],
      "name": "getApproved",
      "outputs": [
        {
          "internalType": "address",
          "name": "",
          "type": "address"
        }
      ],
      "stateMutability": "view",
      "type": "function"
    },
    {
      "inputs": [
        {
          "internalType": "address",
          "name": "owner",
          "type": "address"
        },
        {
          "internalType": "address",
          "name": "operator",
          "type": "address"
        }
      ],
      "name": "isApprovedForAll",
      "outputs": [
        {
          "internalType": "bool",
          "name": "",
          "type": "bool"
        }
      ],
      "stateMutability": "view",
      "type": "function"
    },
    {
      "inputs": [
        {
          "internalType": "address",
          "name": "recipient",
          "type": "address"
        }
      ],
      "name": "mintBreffis",
      "outputs": [
        {
          "internalType": "uint256",
          "name": "",
          "type": "uint256"
        }
      ],
      "stateMutability": "nonpayable",
      "type": "function"
    },
    {
      "inputs": [],
      "name": "name",
      "outputs": [
        {
          "internalType": "string",
          "name": "",
          "type": "string"
        }
      ],
      "stateMutability": "view",
      "type": "function"
    },
    {
      "inputs": [],
      "name": "owner",
      "outputs": [
        {
          "internalType": "address",
          "name": "",
          "type": "address"
        }
      ],
      "stateMutability": "view",
      "type": "function"
    },
    {
      "inputs": [
        {
          "internalType": "uint256",
          "name": "tokenId",
          "type": "uint256"
        }
      ],
      "name": "ownerOf",
      "outputs": [
        {
          "internalType": "address",
          "name": "",
          "type": "address"
        }
      ],
      "stateMutability": "view",
      "type": "function"
    },
    {
      "inputs": [],
      "name": "renounceOwnership",
      "outputs": [],
      "stateMutability": "nonpayable",
      "type": "function"
    },
    {
      "inputs": [
        {
          "internalType": "address",
          "name": "from",
          "type": "address"
        },
        {
          "internalType": "address",
          "name": "to",
          "type": "address"
        },
        {
          "internalType": "uint256",
          "name": "tokenId",
          "type": "uint256"
        }
      ],
      "name": "safeTransferFrom",
      "outputs": [],
      "stateMutability": "nonpayable",
      "type": "function"
    },
    {
      "inputs": [
        {
          "internalType": "address",
          "name": "from",
          "type": "address"
        },
        {
          "internalType": "address",
          "name": "to",
          "type": "address"
        },
        {
          "internalType": "uint256",
          "name": "tokenId",
          "type": "uint256"
        },
        {
          "internalType": "bytes",
          "name": "_data",
          "type": "bytes"
        }
      ],
      "name": "safeTransferFrom",
      "outputs": [],
      "stateMutability": "nonpayable",
      "type": "function"
    },
    {
      "inputs": [
        {
          "internalType": "address",
          "name": "operator",
          "type": "address"
        },
        {
          "internalType": "bool",
          "name": "approved",
          "type": "bool"
        }
      ],
      "name": "setApprovalForAll",
      "outputs": [],
      "stateMutability": "nonpayable",
      "type": "function"
    },
    {
      "inputs": [
        {
          "internalType": "bytes4",
          "name": "interfaceId",
          "type": "bytes4"
        }
      ],
      "name": "supportsInterface",
      "outputs": [
        {
          "internalType": "bool",
          "name": "",
          "type": "bool"
        }
      ],
      "stateMutability": "view",
      "type": "function"
    },
    {
      "inputs": [],
      "name": "symbol",
      "outputs": [
        {
          "internalType": "string",
          "name": "",
          "type": "string"
        }
      ],
      "stateMutability": "view",
      "type": "function"
    },
    {
      "inputs": [
        {
          "internalType": "uint256",
          "name": "tokenId",
          "type": "uint256"
        }
      ],
      "name": "tokenURI",
      "outputs": [
        {
          "internalType": "string",
          "name": "",
          "type": "string"
        }
      ],
      "stateMutability": "view",
      "type": "function"
    },
    {
      "inputs": [
        {
          "internalType": "address",
          "name": "from",
          "type": "address"
        },
        {
          "internalType": "address",
          "name": "to",
          "type": "address"
        },
        {
          "internalType": "uint256",
          "name": "tokenId",
          "type": "uint256"
        }
      ],
      "name": "transferFrom",
      "outputs": [],
      "stateMutability": "nonpayable",
      "type": "function"
    },
    {
      "inputs": [
        {
          "internalType": "address",
          "name": "newOwner",
          "type": "address"
        }
      ],
      "name": "transferOwnership",
      "outputs": [],
      "stateMutability": "nonpayable",
      "type": "function"
    }
  ],
  "bytecode": "0x608060405260405180608001604052806040518060600160405280602e815260200162002f98602e913981526020016040518060600160405280602e815260200162002f6a602e913981526020016040518060600160405280602e815260200162002fc6602e913981526020016040518060600160405280602e815260200162002f6a602e9139815250600a9060046200009b92919062000200565b50348015620000a957600080fd5b506040518060400160405280600e81526020017f4c4f47494b3a2042726566666973000000000000000000000000000000000000815250604051806020016040528060008152508160009080519060200190620001089291906200025a565b508060019080519060200190620001219291906200025a565b505050600062000136620001f860201b60201c565b905080600660006101000a81548173ffffffffffffffffffffffffffffffffffffffff021916908373ffffffffffffffffffffffffffffffffffffffff1602179055508073ffffffffffffffffffffffffffffffffffffffff16600073ffffffffffffffffffffffffffffffffffffffff167f8be0079c531659141344cd1fd0a4f28419497f9722a3daafe3b4186f6b6457e060405160405180910390a3504260088190555060016004620001ec919062000378565b60098190555062000451565b600033905090565b826004810192821562000247579160200282015b8281111562000246578251829080519060200190620002359291906200025a565b509160200191906001019062000214565b5b509050620002569190620002eb565b5090565b8280546200026890620003bd565b90600052602060002090601f0160209004810192826200028c5760008555620002d8565b82601f10620002a757805160ff1916838001178555620002d8565b82800160010185558215620002d8579182015b82811115620002d7578251825591602001919060010190620002ba565b5b509050620002e7919062000313565b5090565b5b808211156200030f576000818162000305919062000332565b50600101620002ec565b5090565b5b808211156200032e57600081600090555060010162000314565b5090565b5080546200034090620003bd565b6000825580601f1062000354575062000375565b601f01602090049060005260206000209081019062000374919062000313565b5b50565b60006200038582620003b3565b91506200039283620003b3565b925082821015620003a857620003a7620003f3565b5b828203905092915050565b6000819050919050565b60006002820490506001821680620003d657607f821691505b60208210811415620003ed57620003ec62000422565b5b50919050565b7f4e487b7100000000000000000000000000000000000000000000000000000000600052601160045260246000fd5b7f4e487b7100000000000000000000000000000000000000000000000000000000600052602260045260246000fd5b612b0980620004616000396000f3fe608060405234801561001057600080fd5b506004361061010b5760003560e01c8063715018a6116100a2578063b88d4fde11610071578063b88d4fde146102a4578063c87b56dd146102c0578063ddf1239c146102f0578063e985e9c514610320578063f2fde38b146103505761010b565b8063715018a6146102425780638da5cb5b1461024c57806395d89b411461026a578063a22cb465146102885761010b565b806323b872dd116100de57806323b872dd146101aa57806342842e0e146101c65780636352211e146101e257806370a08231146102125761010b565b806301ffc9a71461011057806306fdde0314610140578063081812fc1461015e578063095ea7b31461018e575b600080fd5b61012a60048036038101906101259190611c86565b61036c565b60405161013791906124a3565b60405180910390f35b61014861044e565b60405161015591906124be565b60405180910390f35b61017860048036038101906101739190611cd8565b6104e0565b604051610185919061243c565b60405180910390f35b6101a860048036038101906101a39190611c4a565b610565565b005b6101c460048036038101906101bf9190611b44565b61067d565b005b6101e060048036038101906101db9190611b44565b6106dd565b005b6101fc60048036038101906101f79190611cd8565b6106fd565b604051610209919061243c565b60405180910390f35b61022c60048036038101906102279190611adf565b6107af565b60405161023991906126e0565b60405180910390f35b61024a610867565b005b6102546109a4565b604051610261919061243c565b60405180910390f35b6102726109ce565b60405161027f91906124be565b60405180910390f35b6102a2600480360381019061029d9190611c0e565b610a60565b005b6102be60048036038101906102b99190611b93565b610be1565b005b6102da60048036038101906102d59190611cd8565b610c43565b6040516102e791906124be565b60405180910390f35b61030a60048036038101906103059190611adf565b610dbe565b60405161031791906126e0565b60405180910390f35b61033a60048036038101906103359190611b08565b610e67565b60405161034791906124a3565b60405180910390f35b61036a60048036038101906103659190611adf565b610efb565b005b60007f80ac58cd000000000000000000000000000000000000000000000000000000007bffffffffffffffffffffffffffffffffffffffffffffffffffffffff1916827bffffffffffffffffffffffffffffffffffffffffffffffffffffffff1916148061043757507f5b5e139f000000000000000000000000000000000000000000000000000000007bffffffffffffffffffffffffffffffffffffffffffffffffffffffff1916827bffffffffffffffffffffffffffffffffffffffffffffffffffffffff1916145b806104475750610446826110a7565b5b9050919050565b60606000805461045d90612925565b80601f016020809104026020016040519081016040528092919081815260200182805461048990612925565b80156104d65780601f106104ab576101008083540402835291602001916104d6565b820191906000526020600020905b8154815290600101906020018083116104b957829003601f168201915b5050505050905090565b60006104eb82611111565b61052a576040517f08c379a000000000000000000000000000000000000000000000000000000000815260040161052190612620565b60405180910390fd5b6004600083815260200190815260200160002060009054906101000a900473ffffffffffffffffffffffffffffffffffffffff169050919050565b6000610570826106fd565b90508073ffffffffffffffffffffffffffffffffffffffff168373ffffffffffffffffffffffffffffffffffffffff1614156105e1576040517f08c379a00000000000000000000000000000000000000000000000000000000081526004016105d8906126a0565b60405180910390fd5b8073ffffffffffffffffffffffffffffffffffffffff1661060061117d565b73ffffffffffffffffffffffffffffffffffffffff16148061062f575061062e8161062961117d565b610e67565b5b61066e576040517f08c379a0000000000000000000000000000000000000000000000000000000008152600401610665906125a0565b60405180910390fd5b6106788383611185565b505050565b61068e61068861117d565b8261123e565b6106cd576040517f08c379a00000000000000000000000000000000000000000000000000000000081526004016106c4906126c0565b60405180910390fd5b6106d883838361131c565b505050565b6106f883838360405180602001604052806000815250610be1565b505050565b6000806002600084815260200190815260200160002060009054906101000a900473ffffffffffffffffffffffffffffffffffffffff169050600073ffffffffffffffffffffffffffffffffffffffff168173ffffffffffffffffffffffffffffffffffffffff1614156107a6576040517f08c379a000000000000000000000000000000000000000000000000000000000815260040161079d906125e0565b60405180910390fd5b80915050919050565b60008073ffffffffffffffffffffffffffffffffffffffff168273ffffffffffffffffffffffffffffffffffffffff161415610820576040517f08c379a0000000000000000000000000000000000000000000000000000000008152600401610817906125c0565b60405180910390fd5b600360008373ffffffffffffffffffffffffffffffffffffffff1673ffffffffffffffffffffffffffffffffffffffff168152602001908152602001600020549050919050565b61086f61117d565b73ffffffffffffffffffffffffffffffffffffffff1661088d6109a4565b73ffffffffffffffffffffffffffffffffffffffff16146108e3576040517f08c379a00000000000000000000000000000000000000000000000000000000081526004016108da90612640565b60405180910390fd5b600073ffffffffffffffffffffffffffffffffffffffff16600660009054906101000a900473ffffffffffffffffffffffffffffffffffffffff1673ffffffffffffffffffffffffffffffffffffffff167f8be0079c531659141344cd1fd0a4f28419497f9722a3daafe3b4186f6b6457e060405160405180910390a36000600660006101000a81548173ffffffffffffffffffffffffffffffffffffffff021916908373ffffffffffffffffffffffffffffffffffffffff160217905550565b6000600660009054906101000a900473ffffffffffffffffffffffffffffffffffffffff16905090565b6060600180546109dd90612925565b80601f0160208091040260200160405190810160405280929190818152602001828054610a0990612925565b8015610a565780601f10610a2b57610100808354040283529160200191610a56565b820191906000526020600020905b815481529060010190602001808311610a3957829003601f168201915b5050505050905090565b610a6861117d565b73ffffffffffffffffffffffffffffffffffffffff168273ffffffffffffffffffffffffffffffffffffffff161415610ad6576040517f08c379a0000000000000000000000000000000000000000000000000000000008152600401610acd90612560565b60405180910390fd5b8060056000610ae361117d565b73ffffffffffffffffffffffffffffffffffffffff1673ffffffffffffffffffffffffffffffffffffffff16815260200190815260200160002060008473ffffffffffffffffffffffffffffffffffffffff1673ffffffffffffffffffffffffffffffffffffffff16815260200190815260200160002060006101000a81548160ff0219169083151502179055508173ffffffffffffffffffffffffffffffffffffffff16610b9061117d565b73ffffffffffffffffffffffffffffffffffffffff167f17307eab39ab6107e8899845ad3d59bd9653f200f220920489ca2b5937696c3183604051610bd591906124a3565b60405180910390a35050565b610bf2610bec61117d565b8361123e565b610c31576040517f08c379a0000000000000000000000000000000000000000000000000000000008152600401610c28906126c0565b60405180910390fd5b610c3d84848484611578565b50505050565b6060610c4e82611111565b610c8d576040517f08c379a0000000000000000000000000000000000000000000000000000000008152600401610c8490612680565b60405180910390fd5b6000610c976115d4565b905060004290506000603c8060085484610cb1919061283b565b610cbb919061280a565b610cc5919061280a565b9050600060095490506000600683610cdd9190612957565b1415610d135760016004610cf1919061283b565b60095410610d00576000610d10565b6001600954610d0f91906127b4565b5b90505b80600011158015610d245750600481105b610d57577f4e487b7100000000000000000000000000000000000000000000000000000000600052600160045260246000fd5b83600a8260048110610d92577f4e487b7100000000000000000000000000000000000000000000000000000000600052603260045260246000fd5b01604051602001610da4929190612418565b604051602081830303815290604052945050505050919050565b6000610dc861117d565b73ffffffffffffffffffffffffffffffffffffffff16610de66109a4565b73ffffffffffffffffffffffffffffffffffffffff1614610e3c576040517f08c379a0000000000000000000000000000000000000000000000000000000008152600401610e3390612640565b60405180910390fd5b610e4660076115f4565b6000610e52600761160a565b9050610e5e8382611618565b80915050919050565b6000600560008473ffffffffffffffffffffffffffffffffffffffff1673ffffffffffffffffffffffffffffffffffffffff16815260200190815260200160002060008373ffffffffffffffffffffffffffffffffffffffff1673ffffffffffffffffffffffffffffffffffffffff16815260200190815260200160002060009054906101000a900460ff16905092915050565b610f0361117d565b73ffffffffffffffffffffffffffffffffffffffff16610f216109a4565b73ffffffffffffffffffffffffffffffffffffffff1614610f77576040517f08c379a0000000000000000000000000000000000000000000000000000000008152600401610f6e90612640565b60405180910390fd5b600073ffffffffffffffffffffffffffffffffffffffff168173ffffffffffffffffffffffffffffffffffffffff161415610fe7576040517f08c379a0000000000000000000000000000000000000000000000000000000008152600401610fde90612500565b60405180910390fd5b8073ffffffffffffffffffffffffffffffffffffffff16600660009054906101000a900473ffffffffffffffffffffffffffffffffffffffff1673ffffffffffffffffffffffffffffffffffffffff167f8be0079c531659141344cd1fd0a4f28419497f9722a3daafe3b4186f6b6457e060405160405180910390a380600660006101000a81548173ffffffffffffffffffffffffffffffffffffffff021916908373ffffffffffffffffffffffffffffffffffffffff16021790555050565b60007f01ffc9a7000000000000000000000000000000000000000000000000000000007bffffffffffffffffffffffffffffffffffffffffffffffffffffffff1916827bffffffffffffffffffffffffffffffffffffffffffffffffffffffff1916149050919050565b60008073ffffffffffffffffffffffffffffffffffffffff166002600084815260200190815260200160002060009054906101000a900473ffffffffffffffffffffffffffffffffffffffff1673ffffffffffffffffffffffffffffffffffffffff1614159050919050565b600033905090565b816004600083815260200190815260200160002060006101000a81548173ffffffffffffffffffffffffffffffffffffffff021916908373ffffffffffffffffffffffffffffffffffffffff160217905550808273ffffffffffffffffffffffffffffffffffffffff166111f8836106fd565b73ffffffffffffffffffffffffffffffffffffffff167f8c5be1e5ebec7d5bd14f71427d1e84f3dd0314c0f7b2291e5b200ac8c7c3b92560405160405180910390a45050565b600061124982611111565b611288576040517f08c379a000000000000000000000000000000000000000000000000000000000815260040161127f90612580565b60405180910390fd5b6000611293836106fd565b90508073ffffffffffffffffffffffffffffffffffffffff168473ffffffffffffffffffffffffffffffffffffffff16148061130257508373ffffffffffffffffffffffffffffffffffffffff166112ea846104e0565b73ffffffffffffffffffffffffffffffffffffffff16145b8061131357506113128185610e67565b5b91505092915050565b8273ffffffffffffffffffffffffffffffffffffffff1661133c826106fd565b73ffffffffffffffffffffffffffffffffffffffff1614611392576040517f08c379a000000000000000000000000000000000000000000000000000000000815260040161138990612660565b60405180910390fd5b600073ffffffffffffffffffffffffffffffffffffffff168273ffffffffffffffffffffffffffffffffffffffff161415611402576040517f08c379a00000000000000000000000000000000000000000000000000000000081526004016113f990612540565b60405180910390fd5b61140d838383611636565b611418600082611185565b6001600360008573ffffffffffffffffffffffffffffffffffffffff1673ffffffffffffffffffffffffffffffffffffffff1681526020019081526020016000206000828254611468919061283b565b925050819055506001600360008473ffffffffffffffffffffffffffffffffffffffff1673ffffffffffffffffffffffffffffffffffffffff16815260200190815260200160002060008282546114bf91906127b4565b92505081905550816002600083815260200190815260200160002060006101000a81548173ffffffffffffffffffffffffffffffffffffffff021916908373ffffffffffffffffffffffffffffffffffffffff160217905550808273ffffffffffffffffffffffffffffffffffffffff168473ffffffffffffffffffffffffffffffffffffffff167fddf252ad1be2c89b69c2b068fc378daa952ba7f163c4a11628f55a4df523b3ef60405160405180910390a4505050565b61158384848461131c565b61158f8484848461163b565b6115ce576040517f08c379a00000000000000000000000000000000000000000000000000000000081526004016115c5906124e0565b60405180910390fd5b50505050565b6060604051806060016040528060228152602001612ab260229139905090565b6001816000016000828254019250508190555050565b600081600001549050919050565b6116328282604051806020016040528060008152506117d2565b5050565b505050565b600061165c8473ffffffffffffffffffffffffffffffffffffffff1661182d565b156117c5578373ffffffffffffffffffffffffffffffffffffffff1663150b7a0261168561117d565b8786866040518563ffffffff1660e01b81526004016116a79493929190612457565b602060405180830381600087803b1580156116c157600080fd5b505af19250505080156116f257506040513d601f19601f820116820180604052508101906116ef9190611caf565b60015b611775573d8060008114611722576040519150601f19603f3d011682016040523d82523d6000602084013e611727565b606091505b5060008151141561176d576040517f08c379a0000000000000000000000000000000000000000000000000000000008152600401611764906124e0565b60405180910390fd5b805181602001fd5b63150b7a0260e01b7bffffffffffffffffffffffffffffffffffffffffffffffffffffffff1916817bffffffffffffffffffffffffffffffffffffffffffffffffffffffff1916149150506117ca565b600190505b949350505050565b6117dc8383611840565b6117e9600084848461163b565b611828576040517f08c379a000000000000000000000000000000000000000000000000000000000815260040161181f906124e0565b60405180910390fd5b505050565b600080823b905060008111915050919050565b600073ffffffffffffffffffffffffffffffffffffffff168273ffffffffffffffffffffffffffffffffffffffff1614156118b0576040517f08c379a00000000000000000000000000000000000000000000000000000000081526004016118a790612600565b60405180910390fd5b6118b981611111565b156118f9576040517f08c379a00000000000000000000000000000000000000000000000000000000081526004016118f090612520565b60405180910390fd5b61190560008383611636565b6001600360008473ffffffffffffffffffffffffffffffffffffffff1673ffffffffffffffffffffffffffffffffffffffff168152602001908152602001600020600082825461195591906127b4565b92505081905550816002600083815260200190815260200160002060006101000a81548173ffffffffffffffffffffffffffffffffffffffff021916908373ffffffffffffffffffffffffffffffffffffffff160217905550808273ffffffffffffffffffffffffffffffffffffffff16600073ffffffffffffffffffffffffffffffffffffffff167fddf252ad1be2c89b69c2b068fc378daa952ba7f163c4a11628f55a4df523b3ef60405160405180910390a45050565b6000611a21611a1c8461272c565b6126fb565b905082815260208101848484011115611a3957600080fd5b611a448482856128e3565b509392505050565b600081359050611a5b81612a55565b92915050565b600081359050611a7081612a6c565b92915050565b600081359050611a8581612a83565b92915050565b600081519050611a9a81612a83565b92915050565b600082601f830112611ab157600080fd5b8135611ac1848260208601611a0e565b91505092915050565b600081359050611ad981612a9a565b92915050565b600060208284031215611af157600080fd5b6000611aff84828501611a4c565b91505092915050565b60008060408385031215611b1b57600080fd5b6000611b2985828601611a4c565b9250506020611b3a85828601611a4c565b9150509250929050565b600080600060608486031215611b5957600080fd5b6000611b6786828701611a4c565b9350506020611b7886828701611a4c565b9250506040611b8986828701611aca565b9150509250925092565b60008060008060808587031215611ba957600080fd5b6000611bb787828801611a4c565b9450506020611bc887828801611a4c565b9350506040611bd987828801611aca565b925050606085013567ffffffffffffffff811115611bf657600080fd5b611c0287828801611aa0565b91505092959194509250565b60008060408385031215611c2157600080fd5b6000611c2f85828601611a4c565b9250506020611c4085828601611a61565b9150509250929050565b60008060408385031215611c5d57600080fd5b6000611c6b85828601611a4c565b9250506020611c7c85828601611aca565b9150509250929050565b600060208284031215611c9857600080fd5b6000611ca684828501611a76565b91505092915050565b600060208284031215611cc157600080fd5b6000611ccf84828501611a8b565b91505092915050565b600060208284031215611cea57600080fd5b6000611cf884828501611aca565b91505092915050565b611d0a8161286f565b82525050565b611d1981612881565b82525050565b6000611d2a82612771565b611d348185612787565b9350611d448185602086016128f2565b611d4d81612a44565b840191505092915050565b6000611d638261277c565b611d6d8185612798565b9350611d7d8185602086016128f2565b611d8681612a44565b840191505092915050565b6000611d9c8261277c565b611da681856127a9565b9350611db68185602086016128f2565b80840191505092915050565b60008154611dcf81612925565b611dd981866127a9565b94506001821660008114611df45760018114611e0557611e38565b60ff19831686528186019350611e38565b611e0e8561275c565b60005b83811015611e3057815481890152600182019150602081019050611e11565b838801955050505b50505092915050565b6000611e4e603283612798565b91507f4552433732313a207472616e7366657220746f206e6f6e20455243373231526560008301527f63656976657220696d706c656d656e74657200000000000000000000000000006020830152604082019050919050565b6000611eb4602683612798565b91507f4f776e61626c653a206e6577206f776e657220697320746865207a65726f206160008301527f64647265737300000000000000000000000000000000000000000000000000006020830152604082019050919050565b6000611f1a601c83612798565b91507f4552433732313a20746f6b656e20616c7265616479206d696e746564000000006000830152602082019050919050565b6000611f5a602483612798565b91507f4552433732313a207472616e7366657220746f20746865207a65726f2061646460008301527f72657373000000000000000000000000000000000000000000000000000000006020830152604082019050919050565b6000611fc0601983612798565b91507f4552433732313a20617070726f766520746f2063616c6c6572000000000000006000830152602082019050919050565b6000612000602c83612798565b91507f4552433732313a206f70657261746f7220717565727920666f72206e6f6e657860008301527f697374656e7420746f6b656e00000000000000000000000000000000000000006020830152604082019050919050565b6000612066603883612798565b91507f4552433732313a20617070726f76652063616c6c6572206973206e6f74206f7760008301527f6e6572206e6f7220617070726f76656420666f7220616c6c00000000000000006020830152604082019050919050565b60006120cc602a83612798565b91507f4552433732313a2062616c616e636520717565727920666f7220746865207a6560008301527f726f2061646472657373000000000000000000000000000000000000000000006020830152604082019050919050565b6000612132602983612798565b91507f4552433732313a206f776e657220717565727920666f72206e6f6e657869737460008301527f656e7420746f6b656e00000000000000000000000000000000000000000000006020830152604082019050919050565b6000612198602083612798565b91507f4552433732313a206d696e7420746f20746865207a65726f20616464726573736000830152602082019050919050565b60006121d8602c83612798565b91507f4552433732313a20617070726f76656420717565727920666f72206e6f6e657860008301527f697374656e7420746f6b656e00000000000000000000000000000000000000006020830152604082019050919050565b600061223e602083612798565b91507f4f776e61626c653a2063616c6c6572206973206e6f7420746865206f776e65726000830152602082019050919050565b600061227e602983612798565b91507f4552433732313a207472616e73666572206f6620746f6b656e2074686174206960008301527f73206e6f74206f776e00000000000000000000000000000000000000000000006020830152604082019050919050565b60006122e4602f83612798565b91507f4552433732314d657461646174613a2055524920717565727920666f72206e6f60008301527f6e6578697374656e7420746f6b656e00000000000000000000000000000000006020830152604082019050919050565b600061234a602183612798565b91507f4552433732313a20617070726f76616c20746f2063757272656e74206f776e6560008301527f72000000000000000000000000000000000000000000000000000000000000006020830152604082019050919050565b60006123b0603183612798565b91507f4552433732313a207472616e736665722063616c6c6572206973206e6f74206f60008301527f776e6572206e6f7220617070726f7665640000000000000000000000000000006020830152604082019050919050565b612412816128d9565b82525050565b60006124248285611d91565b91506124308284611dc2565b91508190509392505050565b60006020820190506124516000830184611d01565b92915050565b600060808201905061246c6000830187611d01565b6124796020830186611d01565b6124866040830185612409565b81810360608301526124988184611d1f565b905095945050505050565b60006020820190506124b86000830184611d10565b92915050565b600060208201905081810360008301526124d88184611d58565b905092915050565b600060208201905081810360008301526124f981611e41565b9050919050565b6000602082019050818103600083015261251981611ea7565b9050919050565b6000602082019050818103600083015261253981611f0d565b9050919050565b6000602082019050818103600083015261255981611f4d565b9050919050565b6000602082019050818103600083015261257981611fb3565b9050919050565b6000602082019050818103600083015261259981611ff3565b9050919050565b600060208201905081810360008301526125b981612059565b9050919050565b600060208201905081810360008301526125d9816120bf565b9050919050565b600060208201905081810360008301526125f981612125565b9050919050565b600060208201905081810360008301526126198161218b565b9050919050565b60006020820190508181036000830152612639816121cb565b9050919050565b6000602082019050818103600083015261265981612231565b9050919050565b6000602082019050818103600083015261267981612271565b9050919050565b60006020820190508181036000830152612699816122d7565b9050919050565b600060208201905081810360008301526126b98161233d565b9050919050565b600060208201905081810360008301526126d9816123a3565b9050919050565b60006020820190506126f56000830184612409565b92915050565b6000604051905081810181811067ffffffffffffffff8211171561272257612721612a15565b5b8060405250919050565b600067ffffffffffffffff82111561274757612746612a15565b5b601f19601f8301169050602081019050919050565b60008190508160005260206000209050919050565b600081519050919050565b600081519050919050565b600082825260208201905092915050565b600082825260208201905092915050565b600081905092915050565b60006127bf826128d9565b91506127ca836128d9565b9250827fffffffffffffffffffffffffffffffffffffffffffffffffffffffffffffffff038211156127ff576127fe612988565b5b828201905092915050565b6000612815826128d9565b9150612820836128d9565b9250826128305761282f6129b7565b5b828204905092915050565b6000612846826128d9565b9150612851836128d9565b92508282101561286457612863612988565b5b828203905092915050565b600061287a826128b9565b9050919050565b60008115159050919050565b60007fffffffff0000000000000000000000000000000000000000000000000000000082169050919050565b600073ffffffffffffffffffffffffffffffffffffffff82169050919050565b6000819050919050565b82818337600083830152505050565b60005b838110156129105780820151818401526020810190506128f5565b8381111561291f576000848401525b50505050565b6000600282049050600182168061293d57607f821691505b60208210811415612951576129506129e6565b5b50919050565b6000612962826128d9565b915061296d836128d9565b92508261297d5761297c6129b7565b5b828206905092915050565b7f4e487b7100000000000000000000000000000000000000000000000000000000600052601160045260246000fd5b7f4e487b7100000000000000000000000000000000000000000000000000000000600052601260045260246000fd5b7f4e487b7100000000000000000000000000000000000000000000000000000000600052602260045260246000fd5b7f4e487b7100000000000000000000000000000000000000000000000000000000600052604160045260246000fd5b6000601f19601f8301169050919050565b612a5e8161286f565b8114612a6957600080fd5b50565b612a7581612881565b8114612a8057600080fd5b50565b612a8c8161288d565b8114612a9757600080fd5b50565b612aa3816128d9565b8114612aae57600080fd5b5056fe68747470733a2f2f676174657761792e70696e6174612e636c6f75642f697066732fa2646970667358221220522e1af8dcd58648b48441e353efffba296c79f9cddb3396026667f50290093c64736f6c63430008000033516d576f67507a7447586957367462436345666b326d3831396e31515072514b3745566e78675a64505652555044516d53504c563753735375793345554e744a7a5674664a714232546a795846576731386b597a6437525746446d58516d534146327a643133726e48694c6d676561566432745577556a723139576472613754367a5772746a4a653438",
  "linkReferences": {},
  "deployedLinkReferences": {}
}