{
  "_format": "hh-sol-artifact-1",
  "contractName": "Breffis",
  "sourceName": "contracts/Breffis.sol",
  "abi": [
    {
      "inputs": [],
      "stateMutability": "nonpayable",
      "type": "constructor"
    },
    {
      "anonymous": false,
      "inputs": [
        {
          "indexed": true,
          "internalType": "address",
          "name": "owner",
          "type": "address"
        },
        {
          "indexed": true,
          "internalType": "address",
          "name": "approved",
          "type": "address"
        },
        {
          "indexed": true,
          "internalType": "uint256",
          "name": "tokenId",
          "type": "uint256"
        }
      ],
      "name": "Approval",
      "type": "event"
    },
    {
      "anonymous": false,
      "inputs": [
        {
          "indexed": true,
          "internalType": "address",
          "name": "owner",
          "type": "address"
        },
        {
          "indexed": true,
          "internalType": "address",
          "name": "operator",
          "type": "address"
        },
        {
          "indexed": false,
          "internalType": "bool",
          "name": "approved",
          "type": "bool"
        }
      ],
      "name": "ApprovalForAll",
      "type": "event"
    },
    {
      "anonymous": false,
      "inputs": [
        {
          "indexed": true,
          "internalType": "address",
          "name": "previousOwner",
          "type": "address"
        },
        {
          "indexed": true,
          "internalType": "address",
          "name": "newOwner",
          "type": "address"
        }
      ],
      "name": "OwnershipTransferred",
      "type": "event"
    },
    {
      "anonymous": false,
      "inputs": [
        {
          "indexed": true,
          "internalType": "address",
          "name": "from",
          "type": "address"
        },
        {
          "indexed": true,
          "internalType": "address",
          "name": "to",
          "type": "address"
        },
        {
          "indexed": true,
          "internalType": "uint256",
          "name": "tokenId",
          "type": "uint256"
        }
      ],
      "name": "Transfer",
      "type": "event"
    },
    {
      "inputs": [
        {
          "internalType": "address",
          "name": "to",
          "type": "address"
        },
        {
          "internalType": "uint256",
          "name": "tokenId",
          "type": "uint256"
        }
      ],
      "name": "approve",
      "outputs": [],
      "stateMutability": "nonpayable",
      "type": "function"
    },
    {
      "inputs": [
        {
          "internalType": "address",
          "name": "owner",
          "type": "address"
        }
      ],
      "name": "balanceOf",
      "outputs": [
        {
          "internalType": "uint256",
          "name": "",
          "type": "uint256"
        }
      ],
      "stateMutability": "view",
      "type": "function"
    },
    {
      "inputs": [
        {
          "internalType": "uint256",
          "name": "tokenId",
          "type": "uint256"
        }
      ],
      "name": "getApproved",
      "outputs": [
        {
          "internalType": "address",
          "name": "",
          "type": "address"
        }
      ],
      "stateMutability": "view",
      "type": "function"
    },
    {
      "inputs": [
        {
          "internalType": "address",
          "name": "owner",
          "type": "address"
        },
        {
          "internalType": "address",
          "name": "operator",
          "type": "address"
        }
      ],
      "name": "isApprovedForAll",
      "outputs": [
        {
          "internalType": "bool",
          "name": "",
          "type": "bool"
        }
      ],
      "stateMutability": "view",
      "type": "function"
    },
    {
      "inputs": [
        {
          "internalType": "address",
          "name": "recipient",
          "type": "address"
        }
      ],
      "name": "mintBreffis",
      "outputs": [
        {
          "internalType": "uint256",
          "name": "",
          "type": "uint256"
        }
      ],
      "stateMutability": "nonpayable",
      "type": "function"
    },
    {
      "inputs": [],
      "name": "name",
      "outputs": [
        {
          "internalType": "string",
          "name": "",
          "type": "string"
        }
      ],
      "stateMutability": "view",
      "type": "function"
    },
    {
      "inputs": [],
      "name": "owner",
      "outputs": [
        {
          "internalType": "address",
          "name": "",
          "type": "address"
        }
      ],
      "stateMutability": "view",
      "type": "function"
    },
    {
      "inputs": [
        {
          "internalType": "uint256",
          "name": "tokenId",
          "type": "uint256"
        }
      ],
      "name": "ownerOf",
      "outputs": [
        {
          "internalType": "address",
          "name": "",
          "type": "address"
        }
      ],
      "stateMutability": "view",
      "type": "function"
    },
    {
      "inputs": [],
      "name": "renounceOwnership",
      "outputs": [],
      "stateMutability": "nonpayable",
      "type": "function"
    },
    {
      "inputs": [
        {
          "internalType": "address",
          "name": "from",
          "type": "address"
        },
        {
          "internalType": "address",
          "name": "to",
          "type": "address"
        },
        {
          "internalType": "uint256",
          "name": "tokenId",
          "type": "uint256"
        }
      ],
      "name": "safeTransferFrom",
      "outputs": [],
      "stateMutability": "nonpayable",
      "type": "function"
    },
    {
      "inputs": [
        {
          "internalType": "address",
          "name": "from",
          "type": "address"
        },
        {
          "internalType": "address",
          "name": "to",
          "type": "address"
        },
        {
          "internalType": "uint256",
          "name": "tokenId",
          "type": "uint256"
        },
        {
          "internalType": "bytes",
          "name": "_data",
          "type": "bytes"
        }
      ],
      "name": "safeTransferFrom",
      "outputs": [],
      "stateMutability": "nonpayable",
      "type": "function"
    },
    {
      "inputs": [
        {
          "internalType": "address",
          "name": "operator",
          "type": "address"
        },
        {
          "internalType": "bool",
          "name": "approved",
          "type": "bool"
        }
      ],
      "name": "setApprovalForAll",
      "outputs": [],
      "stateMutability": "nonpayable",
      "type": "function"
    },
    {
      "inputs": [
        {
          "internalType": "bytes4",
          "name": "interfaceId",
          "type": "bytes4"
        }
      ],
      "name": "supportsInterface",
      "outputs": [
        {
          "internalType": "bool",
          "name": "",
          "type": "bool"
        }
      ],
      "stateMutability": "view",
      "type": "function"
    },
    {
      "inputs": [],
      "name": "symbol",
      "outputs": [
        {
          "internalType": "string",
          "name": "",
          "type": "string"
        }
      ],
      "stateMutability": "view",
      "type": "function"
    },
    {
      "inputs": [
        {
          "internalType": "uint256",
          "name": "tokenId",
          "type": "uint256"
        }
      ],
      "name": "tokenURI",
      "outputs": [
        {
          "internalType": "string",
          "name": "",
          "type": "string"
        }
      ],
      "stateMutability": "view",
      "type": "function"
    },
    {
      "inputs": [
        {
          "internalType": "address",
          "name": "from",
          "type": "address"
        },
        {
          "internalType": "address",
          "name": "to",
          "type": "address"
        },
        {
          "internalType": "uint256",
          "name": "tokenId",
          "type": "uint256"
        }
      ],
      "name": "transferFrom",
      "outputs": [],
      "stateMutability": "nonpayable",
      "type": "function"
    },
    {
      "inputs": [
        {
          "internalType": "address",
          "name": "newOwner",
          "type": "address"
        }
      ],
      "name": "transferOwnership",
      "outputs": [],
      "stateMutability": "nonpayable",
      "type": "function"
    }
  ],
  "bytecode": "0x60806040523480156200001157600080fd5b506040518060400160405280600e81526020017f4c4f47494b3a2042726566666973000000000000000000000000000000000000815250604051806020016040528060008152508160009080519060200190620000709291906200014b565b508060019080519060200190620000899291906200014b565b50505060006200009e6200014360201b60201c565b905080600660006101000a81548173ffffffffffffffffffffffffffffffffffffffff021916908373ffffffffffffffffffffffffffffffffffffffff1602179055508073ffffffffffffffffffffffffffffffffffffffff16600073ffffffffffffffffffffffffffffffffffffffff167f8be0079c531659141344cd1fd0a4f28419497f9722a3daafe3b4186f6b6457e060405160405180910390a35062000260565b600033905090565b8280546200015990620001fb565b90600052602060002090601f0160209004810192826200017d5760008555620001c9565b82601f106200019857805160ff1916838001178555620001c9565b82800160010185558215620001c9579182015b82811115620001c8578251825591602001919060010190620001ab565b5b509050620001d89190620001dc565b5090565b5b80821115620001f7576000816000905550600101620001dd565b5090565b600060028204905060018216806200021457607f821691505b602082108114156200022b576200022a62000231565b5b50919050565b7f4e487b7100000000000000000000000000000000000000000000000000000000600052602260045260246000fd5b6128fe80620002706000396000f3fe608060405234801561001057600080fd5b506004361061010b5760003560e01c8063715018a6116100a2578063b88d4fde11610071578063b88d4fde146102a4578063c87b56dd146102c0578063ddf1239c146102f0578063e985e9c514610320578063f2fde38b146103505761010b565b8063715018a6146102425780638da5cb5b1461024c57806395d89b411461026a578063a22cb465146102885761010b565b806323b872dd116100de57806323b872dd146101aa57806342842e0e146101c65780636352211e146101e257806370a08231146102125761010b565b806301ffc9a71461011057806306fdde0314610140578063081812fc1461015e578063095ea7b31461018e575b600080fd5b61012a60048036038101906101259190611ba0565b61036c565b604051610137919061233e565b60405180910390f35b61014861044e565b6040516101559190612359565b60405180910390f35b61017860048036038101906101739190611bf2565b6104e0565b60405161018591906122d7565b60405180910390f35b6101a860048036038101906101a39190611b64565b610565565b005b6101c460048036038101906101bf9190611a5e565b61067d565b005b6101e060048036038101906101db9190611a5e565b6106dd565b005b6101fc60048036038101906101f79190611bf2565b6106fd565b60405161020991906122d7565b60405180910390f35b61022c600480360381019061022791906119f9565b6107af565b604051610239919061257b565b60405180910390f35b61024a610867565b005b6102546109a4565b60405161026191906122d7565b60405180910390f35b6102726109ce565b60405161027f9190612359565b60405180910390f35b6102a2600480360381019061029d9190611b28565b610a60565b005b6102be60048036038101906102b99190611aad565b610be1565b005b6102da60048036038101906102d59190611bf2565b610c43565b6040516102e79190612359565b60405180910390f35b61030a600480360381019061030591906119f9565b610cd8565b604051610317919061257b565b60405180910390f35b61033a60048036038101906103359190611a22565b610d81565b604051610347919061233e565b60405180910390f35b61036a600480360381019061036591906119f9565b610e15565b005b60007f80ac58cd000000000000000000000000000000000000000000000000000000007bffffffffffffffffffffffffffffffffffffffffffffffffffffffff1916827bffffffffffffffffffffffffffffffffffffffffffffffffffffffff1916148061043757507f5b5e139f000000000000000000000000000000000000000000000000000000007bffffffffffffffffffffffffffffffffffffffffffffffffffffffff1916827bffffffffffffffffffffffffffffffffffffffffffffffffffffffff1916145b80610447575061044682610fc1565b5b9050919050565b60606000805461045d9061277a565b80601f01602080910402602001604051908101604052809291908181526020018280546104899061277a565b80156104d65780601f106104ab576101008083540402835291602001916104d6565b820191906000526020600020905b8154815290600101906020018083116104b957829003601f168201915b5050505050905090565b60006104eb8261102b565b61052a576040517f08c379a0000000000000000000000000000000000000000000000000000000008152600401610521906124bb565b60405180910390fd5b6004600083815260200190815260200160002060009054906101000a900473ffffffffffffffffffffffffffffffffffffffff169050919050565b6000610570826106fd565b90508073ffffffffffffffffffffffffffffffffffffffff168373ffffffffffffffffffffffffffffffffffffffff1614156105e1576040517f08c379a00000000000000000000000000000000000000000000000000000000081526004016105d89061253b565b60405180910390fd5b8073ffffffffffffffffffffffffffffffffffffffff16610600611097565b73ffffffffffffffffffffffffffffffffffffffff16148061062f575061062e81610629611097565b610d81565b5b61066e576040517f08c379a00000000000000000000000000000000000000000000000000000000081526004016106659061243b565b60405180910390fd5b610678838361109f565b505050565b61068e610688611097565b82611158565b6106cd576040517f08c379a00000000000000000000000000000000000000000000000000000000081526004016106c49061255b565b60405180910390fd5b6106d8838383611236565b505050565b6106f883838360405180602001604052806000815250610be1565b505050565b6000806002600084815260200190815260200160002060009054906101000a900473ffffffffffffffffffffffffffffffffffffffff169050600073ffffffffffffffffffffffffffffffffffffffff168173ffffffffffffffffffffffffffffffffffffffff1614156107a6576040517f08c379a000000000000000000000000000000000000000000000000000000000815260040161079d9061247b565b60405180910390fd5b80915050919050565b60008073ffffffffffffffffffffffffffffffffffffffff168273ffffffffffffffffffffffffffffffffffffffff161415610820576040517f08c379a00000000000000000000000000000000000000000000000000000000081526004016108179061245b565b60405180910390fd5b600360008373ffffffffffffffffffffffffffffffffffffffff1673ffffffffffffffffffffffffffffffffffffffff168152602001908152602001600020549050919050565b61086f611097565b73ffffffffffffffffffffffffffffffffffffffff1661088d6109a4565b73ffffffffffffffffffffffffffffffffffffffff16146108e3576040517f08c379a00000000000000000000000000000000000000000000000000000000081526004016108da906124db565b60405180910390fd5b600073ffffffffffffffffffffffffffffffffffffffff16600660009054906101000a900473ffffffffffffffffffffffffffffffffffffffff1673ffffffffffffffffffffffffffffffffffffffff167f8be0079c531659141344cd1fd0a4f28419497f9722a3daafe3b4186f6b6457e060405160405180910390a36000600660006101000a81548173ffffffffffffffffffffffffffffffffffffffff021916908373ffffffffffffffffffffffffffffffffffffffff160217905550565b6000600660009054906101000a900473ffffffffffffffffffffffffffffffffffffffff16905090565b6060600180546109dd9061277a565b80601f0160208091040260200160405190810160405280929190818152602001828054610a099061277a565b8015610a565780601f10610a2b57610100808354040283529160200191610a56565b820191906000526020600020905b815481529060010190602001808311610a3957829003601f168201915b5050505050905090565b610a68611097565b73ffffffffffffffffffffffffffffffffffffffff168273ffffffffffffffffffffffffffffffffffffffff161415610ad6576040517f08c379a0000000000000000000000000000000000000000000000000000000008152600401610acd906123fb565b60405180910390fd5b8060056000610ae3611097565b73ffffffffffffffffffffffffffffffffffffffff1673ffffffffffffffffffffffffffffffffffffffff16815260200190815260200160002060008473ffffffffffffffffffffffffffffffffffffffff1673ffffffffffffffffffffffffffffffffffffffff16815260200190815260200160002060006101000a81548160ff0219169083151502179055508173ffffffffffffffffffffffffffffffffffffffff16610b90611097565b73ffffffffffffffffffffffffffffffffffffffff167f17307eab39ab6107e8899845ad3d59bd9653f200f220920489ca2b5937696c3183604051610bd5919061233e565b60405180910390a35050565b610bf2610bec611097565b83611158565b610c31576040517f08c379a0000000000000000000000000000000000000000000000000000000008152600401610c289061255b565b60405180910390fd5b610c3d84848484611492565b50505050565b6060610c4e8261102b565b610c8d576040517f08c379a0000000000000000000000000000000000000000000000000000000008152600401610c849061251b565b60405180910390fd5b6000610c976114ee565b905060006040518060200160405280600081525090508181604051602001610cc09291906122b3565b60405160208183030381529060405292505050919050565b6000610ce2611097565b73ffffffffffffffffffffffffffffffffffffffff16610d006109a4565b73ffffffffffffffffffffffffffffffffffffffff1614610d56576040517f08c379a0000000000000000000000000000000000000000000000000000000008152600401610d4d906124db565b60405180910390fd5b610d60600761150e565b6000610d6c6007611524565b9050610d788382611532565b80915050919050565b6000600560008473ffffffffffffffffffffffffffffffffffffffff1673ffffffffffffffffffffffffffffffffffffffff16815260200190815260200160002060008373ffffffffffffffffffffffffffffffffffffffff1673ffffffffffffffffffffffffffffffffffffffff16815260200190815260200160002060009054906101000a900460ff16905092915050565b610e1d611097565b73ffffffffffffffffffffffffffffffffffffffff16610e3b6109a4565b73ffffffffffffffffffffffffffffffffffffffff1614610e91576040517f08c379a0000000000000000000000000000000000000000000000000000000008152600401610e88906124db565b60405180910390fd5b600073ffffffffffffffffffffffffffffffffffffffff168173ffffffffffffffffffffffffffffffffffffffff161415610f01576040517f08c379a0000000000000000000000000000000000000000000000000000000008152600401610ef89061239b565b60405180910390fd5b8073ffffffffffffffffffffffffffffffffffffffff16600660009054906101000a900473ffffffffffffffffffffffffffffffffffffffff1673ffffffffffffffffffffffffffffffffffffffff167f8be0079c531659141344cd1fd0a4f28419497f9722a3daafe3b4186f6b6457e060405160405180910390a380600660006101000a81548173ffffffffffffffffffffffffffffffffffffffff021916908373ffffffffffffffffffffffffffffffffffffffff16021790555050565b60007f01ffc9a7000000000000000000000000000000000000000000000000000000007bffffffffffffffffffffffffffffffffffffffffffffffffffffffff1916827bffffffffffffffffffffffffffffffffffffffffffffffffffffffff1916149050919050565b60008073ffffffffffffffffffffffffffffffffffffffff166002600084815260200190815260200160002060009054906101000a900473ffffffffffffffffffffffffffffffffffffffff1673ffffffffffffffffffffffffffffffffffffffff1614159050919050565b600033905090565b816004600083815260200190815260200160002060006101000a81548173ffffffffffffffffffffffffffffffffffffffff021916908373ffffffffffffffffffffffffffffffffffffffff160217905550808273ffffffffffffffffffffffffffffffffffffffff16611112836106fd565b73ffffffffffffffffffffffffffffffffffffffff167f8c5be1e5ebec7d5bd14f71427d1e84f3dd0314c0f7b2291e5b200ac8c7c3b92560405160405180910390a45050565b60006111638261102b565b6111a2576040517f08c379a00000000000000000000000000000000000000000000000000000000081526004016111999061241b565b60405180910390fd5b60006111ad836106fd565b90508073ffffffffffffffffffffffffffffffffffffffff168473ffffffffffffffffffffffffffffffffffffffff16148061121c57508373ffffffffffffffffffffffffffffffffffffffff16611204846104e0565b73ffffffffffffffffffffffffffffffffffffffff16145b8061122d575061122c8185610d81565b5b91505092915050565b8273ffffffffffffffffffffffffffffffffffffffff16611256826106fd565b73ffffffffffffffffffffffffffffffffffffffff16146112ac576040517f08c379a00000000000000000000000000000000000000000000000000000000081526004016112a3906124fb565b60405180910390fd5b600073ffffffffffffffffffffffffffffffffffffffff168273ffffffffffffffffffffffffffffffffffffffff16141561131c576040517f08c379a0000000000000000000000000000000000000000000000000000000008152600401611313906123db565b60405180910390fd5b611327838383611550565b61133260008261109f565b6001600360008573ffffffffffffffffffffffffffffffffffffffff1673ffffffffffffffffffffffffffffffffffffffff16815260200190815260200160002060008282546113829190612690565b925050819055506001600360008473ffffffffffffffffffffffffffffffffffffffff1673ffffffffffffffffffffffffffffffffffffffff16815260200190815260200160002060008282546113d9919061263a565b92505081905550816002600083815260200190815260200160002060006101000a81548173ffffffffffffffffffffffffffffffffffffffff021916908373ffffffffffffffffffffffffffffffffffffffff160217905550808273ffffffffffffffffffffffffffffffffffffffff168473ffffffffffffffffffffffffffffffffffffffff167fddf252ad1be2c89b69c2b068fc378daa952ba7f163c4a11628f55a4df523b3ef60405160405180910390a4505050565b61149d848484611236565b6114a984848484611555565b6114e8576040517f08c379a00000000000000000000000000000000000000000000000000000000081526004016114df9061237b565b60405180910390fd5b50505050565b60606040518060600160405280602281526020016128a760229139905090565b6001816000016000828254019250508190555050565b600081600001549050919050565b61154c8282604051806020016040528060008152506116ec565b5050565b505050565b60006115768473ffffffffffffffffffffffffffffffffffffffff16611747565b156116df578373ffffffffffffffffffffffffffffffffffffffff1663150b7a0261159f611097565b8786866040518563ffffffff1660e01b81526004016115c194939291906122f2565b602060405180830381600087803b1580156115db57600080fd5b505af192505050801561160c57506040513d601f19601f820116820180604052508101906116099190611bc9565b60015b61168f573d806000811461163c576040519150601f19603f3d011682016040523d82523d6000602084013e611641565b606091505b50600081511415611687576040517f08c379a000000000000000000000000000000000000000000000000000000000815260040161167e9061237b565b60405180910390fd5b805181602001fd5b63150b7a0260e01b7bffffffffffffffffffffffffffffffffffffffffffffffffffffffff1916817bffffffffffffffffffffffffffffffffffffffffffffffffffffffff1916149150506116e4565b600190505b949350505050565b6116f6838361175a565b6117036000848484611555565b611742576040517f08c379a00000000000000000000000000000000000000000000000000000000081526004016117399061237b565b60405180910390fd5b505050565b600080823b905060008111915050919050565b600073ffffffffffffffffffffffffffffffffffffffff168273ffffffffffffffffffffffffffffffffffffffff1614156117ca576040517f08c379a00000000000000000000000000000000000000000000000000000000081526004016117c19061249b565b60405180910390fd5b6117d38161102b565b15611813576040517f08c379a000000000000000000000000000000000000000000000000000000000815260040161180a906123bb565b60405180910390fd5b61181f60008383611550565b6001600360008473ffffffffffffffffffffffffffffffffffffffff1673ffffffffffffffffffffffffffffffffffffffff168152602001908152602001600020600082825461186f919061263a565b92505081905550816002600083815260200190815260200160002060006101000a81548173ffffffffffffffffffffffffffffffffffffffff021916908373ffffffffffffffffffffffffffffffffffffffff160217905550808273ffffffffffffffffffffffffffffffffffffffff16600073ffffffffffffffffffffffffffffffffffffffff167fddf252ad1be2c89b69c2b068fc378daa952ba7f163c4a11628f55a4df523b3ef60405160405180910390a45050565b600061193b611936846125c7565b612596565b90508281526020810184848401111561195357600080fd5b61195e848285612738565b509392505050565b6000813590506119758161284a565b92915050565b60008135905061198a81612861565b92915050565b60008135905061199f81612878565b92915050565b6000815190506119b481612878565b92915050565b600082601f8301126119cb57600080fd5b81356119db848260208601611928565b91505092915050565b6000813590506119f38161288f565b92915050565b600060208284031215611a0b57600080fd5b6000611a1984828501611966565b91505092915050565b60008060408385031215611a3557600080fd5b6000611a4385828601611966565b9250506020611a5485828601611966565b9150509250929050565b600080600060608486031215611a7357600080fd5b6000611a8186828701611966565b9350506020611a9286828701611966565b9250506040611aa3868287016119e4565b9150509250925092565b60008060008060808587031215611ac357600080fd5b6000611ad187828801611966565b9450506020611ae287828801611966565b9350506040611af3878288016119e4565b925050606085013567ffffffffffffffff811115611b1057600080fd5b611b1c878288016119ba565b91505092959194509250565b60008060408385031215611b3b57600080fd5b6000611b4985828601611966565b9250506020611b5a8582860161197b565b9150509250929050565b60008060408385031215611b7757600080fd5b6000611b8585828601611966565b9250506020611b96858286016119e4565b9150509250929050565b600060208284031215611bb257600080fd5b6000611bc084828501611990565b91505092915050565b600060208284031215611bdb57600080fd5b6000611be9848285016119a5565b91505092915050565b600060208284031215611c0457600080fd5b6000611c12848285016119e4565b91505092915050565b611c24816126c4565b82525050565b611c33816126d6565b82525050565b6000611c44826125f7565b611c4e818561260d565b9350611c5e818560208601612747565b611c6781612839565b840191505092915050565b6000611c7d82612602565b611c87818561261e565b9350611c97818560208601612747565b611ca081612839565b840191505092915050565b6000611cb682612602565b611cc0818561262f565b9350611cd0818560208601612747565b80840191505092915050565b6000611ce960328361261e565b91507f4552433732313a207472616e7366657220746f206e6f6e20455243373231526560008301527f63656976657220696d706c656d656e74657200000000000000000000000000006020830152604082019050919050565b6000611d4f60268361261e565b91507f4f776e61626c653a206e6577206f776e657220697320746865207a65726f206160008301527f64647265737300000000000000000000000000000000000000000000000000006020830152604082019050919050565b6000611db5601c8361261e565b91507f4552433732313a20746f6b656e20616c7265616479206d696e746564000000006000830152602082019050919050565b6000611df560248361261e565b91507f4552433732313a207472616e7366657220746f20746865207a65726f2061646460008301527f72657373000000000000000000000000000000000000000000000000000000006020830152604082019050919050565b6000611e5b60198361261e565b91507f4552433732313a20617070726f766520746f2063616c6c6572000000000000006000830152602082019050919050565b6000611e9b602c8361261e565b91507f4552433732313a206f70657261746f7220717565727920666f72206e6f6e657860008301527f697374656e7420746f6b656e00000000000000000000000000000000000000006020830152604082019050919050565b6000611f0160388361261e565b91507f4552433732313a20617070726f76652063616c6c6572206973206e6f74206f7760008301527f6e6572206e6f7220617070726f76656420666f7220616c6c00000000000000006020830152604082019050919050565b6000611f67602a8361261e565b91507f4552433732313a2062616c616e636520717565727920666f7220746865207a6560008301527f726f2061646472657373000000000000000000000000000000000000000000006020830152604082019050919050565b6000611fcd60298361261e565b91507f4552433732313a206f776e657220717565727920666f72206e6f6e657869737460008301527f656e7420746f6b656e00000000000000000000000000000000000000000000006020830152604082019050919050565b600061203360208361261e565b91507f4552433732313a206d696e7420746f20746865207a65726f20616464726573736000830152602082019050919050565b6000612073602c8361261e565b91507f4552433732313a20617070726f76656420717565727920666f72206e6f6e657860008301527f697374656e7420746f6b656e00000000000000000000000000000000000000006020830152604082019050919050565b60006120d960208361261e565b91507f4f776e61626c653a2063616c6c6572206973206e6f7420746865206f776e65726000830152602082019050919050565b600061211960298361261e565b91507f4552433732313a207472616e73666572206f6620746f6b656e2074686174206960008301527f73206e6f74206f776e00000000000000000000000000000000000000000000006020830152604082019050919050565b600061217f602f8361261e565b91507f4552433732314d657461646174613a2055524920717565727920666f72206e6f60008301527f6e6578697374656e7420746f6b656e00000000000000000000000000000000006020830152604082019050919050565b60006121e560218361261e565b91507f4552433732313a20617070726f76616c20746f2063757272656e74206f776e6560008301527f72000000000000000000000000000000000000000000000000000000000000006020830152604082019050919050565b600061224b60318361261e565b91507f4552433732313a207472616e736665722063616c6c6572206973206e6f74206f60008301527f776e6572206e6f7220617070726f7665640000000000000000000000000000006020830152604082019050919050565b6122ad8161272e565b82525050565b60006122bf8285611cab565b91506122cb8284611cab565b91508190509392505050565b60006020820190506122ec6000830184611c1b565b92915050565b60006080820190506123076000830187611c1b565b6123146020830186611c1b565b61232160408301856122a4565b81810360608301526123338184611c39565b905095945050505050565b60006020820190506123536000830184611c2a565b92915050565b600060208201905081810360008301526123738184611c72565b905092915050565b6000602082019050818103600083015261239481611cdc565b9050919050565b600060208201905081810360008301526123b481611d42565b9050919050565b600060208201905081810360008301526123d481611da8565b9050919050565b600060208201905081810360008301526123f481611de8565b9050919050565b6000602082019050818103600083015261241481611e4e565b9050919050565b6000602082019050818103600083015261243481611e8e565b9050919050565b6000602082019050818103600083015261245481611ef4565b9050919050565b6000602082019050818103600083015261247481611f5a565b9050919050565b6000602082019050818103600083015261249481611fc0565b9050919050565b600060208201905081810360008301526124b481612026565b9050919050565b600060208201905081810360008301526124d481612066565b9050919050565b600060208201905081810360008301526124f4816120cc565b9050919050565b600060208201905081810360008301526125148161210c565b9050919050565b6000602082019050818103600083015261253481612172565b9050919050565b60006020820190508181036000830152612554816121d8565b9050919050565b600060208201905081810360008301526125748161223e565b9050919050565b600060208201905061259060008301846122a4565b92915050565b6000604051905081810181811067ffffffffffffffff821117156125bd576125bc61280a565b5b8060405250919050565b600067ffffffffffffffff8211156125e2576125e161280a565b5b601f19601f8301169050602081019050919050565b600081519050919050565b600081519050919050565b600082825260208201905092915050565b600082825260208201905092915050565b600081905092915050565b60006126458261272e565b91506126508361272e565b9250827fffffffffffffffffffffffffffffffffffffffffffffffffffffffffffffffff03821115612685576126846127ac565b5b828201905092915050565b600061269b8261272e565b91506126a68361272e565b9250828210156126b9576126b86127ac565b5b828203905092915050565b60006126cf8261270e565b9050919050565b60008115159050919050565b60007fffffffff0000000000000000000000000000000000000000000000000000000082169050919050565b600073ffffffffffffffffffffffffffffffffffffffff82169050919050565b6000819050919050565b82818337600083830152505050565b60005b8381101561276557808201518184015260208101905061274a565b83811115612774576000848401525b50505050565b6000600282049050600182168061279257607f821691505b602082108114156127a6576127a56127db565b5b50919050565b7f4e487b7100000000000000000000000000000000000000000000000000000000600052601160045260246000fd5b7f4e487b7100000000000000000000000000000000000000000000000000000000600052602260045260246000fd5b7f4e487b7100000000000000000000000000000000000000000000000000000000600052604160045260246000fd5b6000601f19601f8301169050919050565b612853816126c4565b811461285e57600080fd5b50565b61286a816126d6565b811461287557600080fd5b50565b612881816126e2565b811461288c57600080fd5b50565b6128988161272e565b81146128a357600080fd5b5056fe68747470733a2f2f676174657761792e70696e6174612e636c6f75642f697066732fa26469706673582212207f42c2258cbb86dbf3570798b01adc0bd5b7c195c52c878ef0790d4146134fe664736f6c63430008000033",
  "linkReferences": {},
  "deployedLinkReferences": {}
}