{
  "_format": "hh-sol-artifact-1",
  "contractName": "LOGIKRocketBitch",
  "sourceName": "contracts/LOGIKRocketBitch.sol",
  "abi": [
    {
      "inputs": [],
      "stateMutability": "nonpayable",
      "type": "constructor"
    },
    {
      "anonymous": false,
      "inputs": [
        {
          "indexed": true,
          "internalType": "address",
          "name": "owner",
          "type": "address"
        },
        {
          "indexed": true,
          "internalType": "address",
          "name": "approved",
          "type": "address"
        },
        {
          "indexed": true,
          "internalType": "uint256",
          "name": "tokenId",
          "type": "uint256"
        }
      ],
      "name": "Approval",
      "type": "event"
    },
    {
      "anonymous": false,
      "inputs": [
        {
          "indexed": true,
          "internalType": "address",
          "name": "owner",
          "type": "address"
        },
        {
          "indexed": true,
          "internalType": "address",
          "name": "operator",
          "type": "address"
        },
        {
          "indexed": false,
          "internalType": "bool",
          "name": "approved",
          "type": "bool"
        }
      ],
      "name": "ApprovalForAll",
      "type": "event"
    },
    {
      "anonymous": false,
      "inputs": [
        {
          "indexed": true,
          "internalType": "address",
          "name": "previousOwner",
          "type": "address"
        },
        {
          "indexed": true,
          "internalType": "address",
          "name": "newOwner",
          "type": "address"
        }
      ],
      "name": "OwnershipTransferred",
      "type": "event"
    },
    {
      "anonymous": false,
      "inputs": [
        {
          "indexed": true,
          "internalType": "address",
          "name": "from",
          "type": "address"
        },
        {
          "indexed": true,
          "internalType": "address",
          "name": "to",
          "type": "address"
        },
        {
          "indexed": true,
          "internalType": "uint256",
          "name": "tokenId",
          "type": "uint256"
        }
      ],
      "name": "Transfer",
      "type": "event"
    },
    {
      "inputs": [
        {
          "internalType": "address",
          "name": "to",
          "type": "address"
        },
        {
          "internalType": "uint256",
          "name": "tokenId",
          "type": "uint256"
        }
      ],
      "name": "approve",
      "outputs": [],
      "stateMutability": "nonpayable",
      "type": "function"
    },
    {
      "inputs": [
        {
          "internalType": "address",
          "name": "owner",
          "type": "address"
        }
      ],
      "name": "balanceOf",
      "outputs": [
        {
          "internalType": "uint256",
          "name": "",
          "type": "uint256"
        }
      ],
      "stateMutability": "view",
      "type": "function"
    },
    {
      "inputs": [],
      "name": "daysSinceCreation",
      "outputs": [
        {
          "internalType": "uint256",
          "name": "",
          "type": "uint256"
        }
      ],
      "stateMutability": "view",
      "type": "function"
    },
    {
      "inputs": [
        {
          "internalType": "uint256",
          "name": "tokenId",
          "type": "uint256"
        }
      ],
      "name": "getApproved",
      "outputs": [
        {
          "internalType": "address",
          "name": "",
          "type": "address"
        }
      ],
      "stateMutability": "view",
      "type": "function"
    },
    {
      "inputs": [
        {
          "internalType": "address",
          "name": "owner",
          "type": "address"
        },
        {
          "internalType": "address",
          "name": "operator",
          "type": "address"
        }
      ],
      "name": "isApprovedForAll",
      "outputs": [
        {
          "internalType": "bool",
          "name": "",
          "type": "bool"
        }
      ],
      "stateMutability": "view",
      "type": "function"
    },
    {
      "inputs": [
        {
          "internalType": "address",
          "name": "recipient",
          "type": "address"
        }
      ],
      "name": "mintRocketLauncher",
      "outputs": [
        {
          "internalType": "uint256",
          "name": "",
          "type": "uint256"
        }
      ],
      "stateMutability": "nonpayable",
      "type": "function"
    },
    {
      "inputs": [],
      "name": "name",
      "outputs": [
        {
          "internalType": "string",
          "name": "",
          "type": "string"
        }
      ],
      "stateMutability": "view",
      "type": "function"
    },
    {
      "inputs": [],
      "name": "owner",
      "outputs": [
        {
          "internalType": "address",
          "name": "",
          "type": "address"
        }
      ],
      "stateMutability": "view",
      "type": "function"
    },
    {
      "inputs": [
        {
          "internalType": "uint256",
          "name": "tokenId",
          "type": "uint256"
        }
      ],
      "name": "ownerOf",
      "outputs": [
        {
          "internalType": "address",
          "name": "",
          "type": "address"
        }
      ],
      "stateMutability": "view",
      "type": "function"
    },
    {
      "inputs": [],
      "name": "renounceOwnership",
      "outputs": [],
      "stateMutability": "nonpayable",
      "type": "function"
    },
    {
      "inputs": [
        {
          "internalType": "address",
          "name": "from",
          "type": "address"
        },
        {
          "internalType": "address",
          "name": "to",
          "type": "address"
        },
        {
          "internalType": "uint256",
          "name": "tokenId",
          "type": "uint256"
        }
      ],
      "name": "safeTransferFrom",
      "outputs": [],
      "stateMutability": "nonpayable",
      "type": "function"
    },
    {
      "inputs": [
        {
          "internalType": "address",
          "name": "from",
          "type": "address"
        },
        {
          "internalType": "address",
          "name": "to",
          "type": "address"
        },
        {
          "internalType": "uint256",
          "name": "tokenId",
          "type": "uint256"
        },
        {
          "internalType": "bytes",
          "name": "_data",
          "type": "bytes"
        }
      ],
      "name": "safeTransferFrom",
      "outputs": [],
      "stateMutability": "nonpayable",
      "type": "function"
    },
    {
      "inputs": [
        {
          "internalType": "address",
          "name": "operator",
          "type": "address"
        },
        {
          "internalType": "bool",
          "name": "approved",
          "type": "bool"
        }
      ],
      "name": "setApprovalForAll",
      "outputs": [],
      "stateMutability": "nonpayable",
      "type": "function"
    },
    {
      "inputs": [
        {
          "internalType": "bytes4",
          "name": "interfaceId",
          "type": "bytes4"
        }
      ],
      "name": "supportsInterface",
      "outputs": [
        {
          "internalType": "bool",
          "name": "",
          "type": "bool"
        }
      ],
      "stateMutability": "view",
      "type": "function"
    },
    {
      "inputs": [],
      "name": "symbol",
      "outputs": [
        {
          "internalType": "string",
          "name": "",
          "type": "string"
        }
      ],
      "stateMutability": "view",
      "type": "function"
    },
    {
      "inputs": [
        {
          "internalType": "uint256",
          "name": "tokenId",
          "type": "uint256"
        }
      ],
      "name": "tokenURI",
      "outputs": [
        {
          "internalType": "string",
          "name": "",
          "type": "string"
        }
      ],
      "stateMutability": "view",
      "type": "function"
    },
    {
      "inputs": [
        {
          "internalType": "address",
          "name": "from",
          "type": "address"
        },
        {
          "internalType": "address",
          "name": "to",
          "type": "address"
        },
        {
          "internalType": "uint256",
          "name": "tokenId",
          "type": "uint256"
        }
      ],
      "name": "transferFrom",
      "outputs": [],
      "stateMutability": "nonpayable",
      "type": "function"
    },
    {
      "inputs": [
        {
          "internalType": "address",
          "name": "newOwner",
          "type": "address"
        }
      ],
      "name": "transferOwnership",
      "outputs": [],
      "stateMutability": "nonpayable",
      "type": "function"
    }
  ],
  "bytecode": "0x60806040526040518060a001604052806040518060600160405280602e815260200162002f9a602e913981526020016040518060600160405280602e815260200162002fc8602e913981526020016040518060600160405280602e815260200162002fc8602e913981526020016040518060600160405280602e815260200162002fc8602e913981526020016040518060600160405280602e815260200162002fc8602e9139815250600a906005620000ba92919062000237565b50348015620000c857600080fd5b506040518060400160405280601981526020017f4c4f47494b207820424c4d3a20526f636b6574204269746368000000000000008152506040518060400160405280600581526020017f4c474b524200000000000000000000000000000000000000000000000000000081525081600090805190602001906200014d92919062000291565b5080600190805190602001906200016692919062000291565b50505060006200017b6200022f60201b60201c565b905080600660006101000a81548173ffffffffffffffffffffffffffffffffffffffff021916908373ffffffffffffffffffffffffffffffffffffffff1602179055508073ffffffffffffffffffffffffffffffffffffffff16600073ffffffffffffffffffffffffffffffffffffffff167f8be0079c531659141344cd1fd0a4f28419497f9722a3daafe3b4186f6b6457e060405160405180910390a35042600881905550600460098190555062000414565b600033905090565b82600581019282156200027e579160200282015b828111156200027d5782518290805190602001906200026c92919062000291565b50916020019190600101906200024b565b5b5090506200028d919062000322565b5090565b8280546200029f90620003af565b90600052602060002090601f016020900481019282620002c357600085556200030f565b82601f10620002de57805160ff19168380011785556200030f565b828001600101855582156200030f579182015b828111156200030e578251825591602001919060010190620002f1565b5b5090506200031e91906200034a565b5090565b5b808211156200034657600081816200033c919062000369565b5060010162000323565b5090565b5b80821115620003655760008160009055506001016200034b565b5090565b5080546200037790620003af565b6000825580601f106200038b5750620003ac565b601f016020900490600052602060002090810190620003ab91906200034a565b5b50565b60006002820490506001821680620003c857607f821691505b60208210811415620003df57620003de620003e5565b5b50919050565b7f4e487b7100000000000000000000000000000000000000000000000000000000600052602260045260246000fd5b612b7680620004246000396000f3fe608060405234801561001057600080fd5b50600436106101165760003560e01c806370a08231116100a2578063a22cb46511610071578063a22cb465146102e1578063b88d4fde146102fd578063c87b56dd14610319578063e985e9c514610349578063f2fde38b1461037957610116565b806370a082311461026b578063715018a61461029b5780638da5cb5b146102a557806395d89b41146102c357610116565b80630bfbe4e7116100e95780630bfbe4e7146101b557806323b872dd146101d357806342842e0e146101ef5780635de6cf811461020b5780636352211e1461023b57610116565b806301ffc9a71461011b57806306fdde031461014b578063081812fc14610169578063095ea7b314610199575b600080fd5b61013560048036038101906101309190611cf3565b610395565b6040516101429190612510565b60405180910390f35b610153610477565b604051610160919061252b565b60405180910390f35b610183600480360381019061017e9190611d45565b610509565b60405161019091906124a9565b60405180910390f35b6101b360048036038101906101ae9190611cb7565b61058e565b005b6101bd6106a6565b6040516101ca919061274d565b60405180910390f35b6101ed60048036038101906101e89190611bb1565b6106de565b005b61020960048036038101906102049190611bb1565b61073e565b005b61022560048036038101906102209190611b4c565b61075e565b604051610232919061274d565b60405180910390f35b61025560048036038101906102509190611d45565b610807565b60405161026291906124a9565b60405180910390f35b61028560048036038101906102809190611b4c565b6108b9565b604051610292919061274d565b60405180910390f35b6102a3610971565b005b6102ad610aae565b6040516102ba91906124a9565b60405180910390f35b6102cb610ad8565b6040516102d8919061252b565b60405180910390f35b6102fb60048036038101906102f69190611c7b565b610b6a565b005b61031760048036038101906103129190611c00565b610ceb565b005b610333600480360381019061032e9190611d45565b610d4d565b604051610340919061252b565b60405180910390f35b610363600480360381019061035e9190611b75565b610ed4565b6040516103709190612510565b60405180910390f35b610393600480360381019061038e9190611b4c565b610f68565b005b60007f80ac58cd000000000000000000000000000000000000000000000000000000007bffffffffffffffffffffffffffffffffffffffffffffffffffffffff1916827bffffffffffffffffffffffffffffffffffffffffffffffffffffffff1916148061046057507f5b5e139f000000000000000000000000000000000000000000000000000000007bffffffffffffffffffffffffffffffffffffffffffffffffffffffff1916827bffffffffffffffffffffffffffffffffffffffffffffffffffffffff1916145b80610470575061046f82611114565b5b9050919050565b60606000805461048690612992565b80601f01602080910402602001604051908101604052809291908181526020018280546104b290612992565b80156104ff5780601f106104d4576101008083540402835291602001916104ff565b820191906000526020600020905b8154815290600101906020018083116104e257829003601f168201915b5050505050905090565b60006105148261117e565b610553576040517f08c379a000000000000000000000000000000000000000000000000000000000815260040161054a9061268d565b60405180910390fd5b6004600083815260200190815260200160002060009054906101000a900473ffffffffffffffffffffffffffffffffffffffff169050919050565b600061059982610807565b90508073ffffffffffffffffffffffffffffffffffffffff168373ffffffffffffffffffffffffffffffffffffffff16141561060a576040517f08c379a00000000000000000000000000000000000000000000000000000000081526004016106019061270d565b60405180910390fd5b8073ffffffffffffffffffffffffffffffffffffffff166106296111ea565b73ffffffffffffffffffffffffffffffffffffffff1614806106585750610657816106526111ea565b610ed4565b5b610697576040517f08c379a000000000000000000000000000000000000000000000000000000000815260040161068e9061260d565b60405180910390fd5b6106a183836111f2565b505050565b60006018603c80600854426106bb91906128a8565b6106c59190612877565b6106cf9190612877565b6106d99190612877565b905090565b6106ef6106e96111ea565b826112ab565b61072e576040517f08c379a00000000000000000000000000000000000000000000000000000000081526004016107259061272d565b60405180910390fd5b610739838383611389565b505050565b61075983838360405180602001604052806000815250610ceb565b505050565b60006107686111ea565b73ffffffffffffffffffffffffffffffffffffffff16610786610aae565b73ffffffffffffffffffffffffffffffffffffffff16146107dc576040517f08c379a00000000000000000000000000000000000000000000000000000000081526004016107d3906126ad565b60405180910390fd5b6107e660076115e5565b60006107f260076115fb565b90506107fe8382611609565b80915050919050565b6000806002600084815260200190815260200160002060009054906101000a900473ffffffffffffffffffffffffffffffffffffffff169050600073ffffffffffffffffffffffffffffffffffffffff168173ffffffffffffffffffffffffffffffffffffffff1614156108b0576040517f08c379a00000000000000000000000000000000000000000000000000000000081526004016108a79061264d565b60405180910390fd5b80915050919050565b60008073ffffffffffffffffffffffffffffffffffffffff168273ffffffffffffffffffffffffffffffffffffffff16141561092a576040517f08c379a00000000000000000000000000000000000000000000000000000000081526004016109219061262d565b60405180910390fd5b600360008373ffffffffffffffffffffffffffffffffffffffff1673ffffffffffffffffffffffffffffffffffffffff168152602001908152602001600020549050919050565b6109796111ea565b73ffffffffffffffffffffffffffffffffffffffff16610997610aae565b73ffffffffffffffffffffffffffffffffffffffff16146109ed576040517f08c379a00000000000000000000000000000000000000000000000000000000081526004016109e4906126ad565b60405180910390fd5b600073ffffffffffffffffffffffffffffffffffffffff16600660009054906101000a900473ffffffffffffffffffffffffffffffffffffffff1673ffffffffffffffffffffffffffffffffffffffff167f8be0079c531659141344cd1fd0a4f28419497f9722a3daafe3b4186f6b6457e060405160405180910390a36000600660006101000a81548173ffffffffffffffffffffffffffffffffffffffff021916908373ffffffffffffffffffffffffffffffffffffffff160217905550565b6000600660009054906101000a900473ffffffffffffffffffffffffffffffffffffffff16905090565b606060018054610ae790612992565b80601f0160208091040260200160405190810160405280929190818152602001828054610b1390612992565b8015610b605780601f10610b3557610100808354040283529160200191610b60565b820191906000526020600020905b815481529060010190602001808311610b4357829003601f168201915b5050505050905090565b610b726111ea565b73ffffffffffffffffffffffffffffffffffffffff168273ffffffffffffffffffffffffffffffffffffffff161415610be0576040517f08c379a0000000000000000000000000000000000000000000000000000000008152600401610bd7906125cd565b60405180910390fd5b8060056000610bed6111ea565b73ffffffffffffffffffffffffffffffffffffffff1673ffffffffffffffffffffffffffffffffffffffff16815260200190815260200160002060008473ffffffffffffffffffffffffffffffffffffffff1673ffffffffffffffffffffffffffffffffffffffff16815260200190815260200160002060006101000a81548160ff0219169083151502179055508173ffffffffffffffffffffffffffffffffffffffff16610c9a6111ea565b73ffffffffffffffffffffffffffffffffffffffff167f17307eab39ab6107e8899845ad3d59bd9653f200f220920489ca2b5937696c3183604051610cdf9190612510565b60405180910390a35050565b610cfc610cf66111ea565b836112ab565b610d3b576040517f08c379a0000000000000000000000000000000000000000000000000000000008152600401610d329061272d565b60405180910390fd5b610d4784848484611627565b50505050565b6060610d588261117e565b610d97576040517f08c379a0000000000000000000000000000000000000000000000000000000008152600401610d8e906126ed565b60405180910390fd5b6000610da1611683565b9050600042905060006018603c8060085485610dbd91906128a8565b610dc79190612877565b610dd19190612877565b610ddb9190612877565b9050600060095490506000600a83610df391906129c4565b1415610e295760016005610e0791906128a8565b60095410610e16576000610e26565b6001600954610e259190612821565b5b90505b80600011158015610e3a5750600581105b610e6d577f4e487b7100000000000000000000000000000000000000000000000000000000600052600160045260246000fd5b83600a8260058110610ea8577f4e487b7100000000000000000000000000000000000000000000000000000000600052603260045260246000fd5b01604051602001610eba929190612485565b604051602081830303815290604052945050505050919050565b6000600560008473ffffffffffffffffffffffffffffffffffffffff1673ffffffffffffffffffffffffffffffffffffffff16815260200190815260200160002060008373ffffffffffffffffffffffffffffffffffffffff1673ffffffffffffffffffffffffffffffffffffffff16815260200190815260200160002060009054906101000a900460ff16905092915050565b610f706111ea565b73ffffffffffffffffffffffffffffffffffffffff16610f8e610aae565b73ffffffffffffffffffffffffffffffffffffffff1614610fe4576040517f08c379a0000000000000000000000000000000000000000000000000000000008152600401610fdb906126ad565b60405180910390fd5b600073ffffffffffffffffffffffffffffffffffffffff168173ffffffffffffffffffffffffffffffffffffffff161415611054576040517f08c379a000000000000000000000000000000000000000000000000000000000815260040161104b9061256d565b60405180910390fd5b8073ffffffffffffffffffffffffffffffffffffffff16600660009054906101000a900473ffffffffffffffffffffffffffffffffffffffff1673ffffffffffffffffffffffffffffffffffffffff167f8be0079c531659141344cd1fd0a4f28419497f9722a3daafe3b4186f6b6457e060405160405180910390a380600660006101000a81548173ffffffffffffffffffffffffffffffffffffffff021916908373ffffffffffffffffffffffffffffffffffffffff16021790555050565b60007f01ffc9a7000000000000000000000000000000000000000000000000000000007bffffffffffffffffffffffffffffffffffffffffffffffffffffffff1916827bffffffffffffffffffffffffffffffffffffffffffffffffffffffff1916149050919050565b60008073ffffffffffffffffffffffffffffffffffffffff166002600084815260200190815260200160002060009054906101000a900473ffffffffffffffffffffffffffffffffffffffff1673ffffffffffffffffffffffffffffffffffffffff1614159050919050565b600033905090565b816004600083815260200190815260200160002060006101000a81548173ffffffffffffffffffffffffffffffffffffffff021916908373ffffffffffffffffffffffffffffffffffffffff160217905550808273ffffffffffffffffffffffffffffffffffffffff1661126583610807565b73ffffffffffffffffffffffffffffffffffffffff167f8c5be1e5ebec7d5bd14f71427d1e84f3dd0314c0f7b2291e5b200ac8c7c3b92560405160405180910390a45050565b60006112b68261117e565b6112f5576040517f08c379a00000000000000000000000000000000000000000000000000000000081526004016112ec906125ed565b60405180910390fd5b600061130083610807565b90508073ffffffffffffffffffffffffffffffffffffffff168473ffffffffffffffffffffffffffffffffffffffff16148061136f57508373ffffffffffffffffffffffffffffffffffffffff1661135784610509565b73ffffffffffffffffffffffffffffffffffffffff16145b80611380575061137f8185610ed4565b5b91505092915050565b8273ffffffffffffffffffffffffffffffffffffffff166113a982610807565b73ffffffffffffffffffffffffffffffffffffffff16146113ff576040517f08c379a00000000000000000000000000000000000000000000000000000000081526004016113f6906126cd565b60405180910390fd5b600073ffffffffffffffffffffffffffffffffffffffff168273ffffffffffffffffffffffffffffffffffffffff16141561146f576040517f08c379a0000000000000000000000000000000000000000000000000000000008152600401611466906125ad565b60405180910390fd5b61147a8383836116a3565b6114856000826111f2565b6001600360008573ffffffffffffffffffffffffffffffffffffffff1673ffffffffffffffffffffffffffffffffffffffff16815260200190815260200160002060008282546114d591906128a8565b925050819055506001600360008473ffffffffffffffffffffffffffffffffffffffff1673ffffffffffffffffffffffffffffffffffffffff168152602001908152602001600020600082825461152c9190612821565b92505081905550816002600083815260200190815260200160002060006101000a81548173ffffffffffffffffffffffffffffffffffffffff021916908373ffffffffffffffffffffffffffffffffffffffff160217905550808273ffffffffffffffffffffffffffffffffffffffff168473ffffffffffffffffffffffffffffffffffffffff167fddf252ad1be2c89b69c2b068fc378daa952ba7f163c4a11628f55a4df523b3ef60405160405180910390a4505050565b6001816000016000828254019250508190555050565b600081600001549050919050565b6116238282604051806020016040528060008152506116a8565b5050565b611632848484611389565b61163e84848484611703565b61167d576040517f08c379a00000000000000000000000000000000000000000000000000000000081526004016116749061254d565b60405180910390fd5b50505050565b6060604051806060016040528060228152602001612b1f60229139905090565b505050565b6116b2838361189a565b6116bf6000848484611703565b6116fe576040517f08c379a00000000000000000000000000000000000000000000000000000000081526004016116f59061254d565b60405180910390fd5b505050565b60006117248473ffffffffffffffffffffffffffffffffffffffff16611a68565b1561188d578373ffffffffffffffffffffffffffffffffffffffff1663150b7a0261174d6111ea565b8786866040518563ffffffff1660e01b815260040161176f94939291906124c4565b602060405180830381600087803b15801561178957600080fd5b505af19250505080156117ba57506040513d601f19601f820116820180604052508101906117b79190611d1c565b60015b61183d573d80600081146117ea576040519150601f19603f3d011682016040523d82523d6000602084013e6117ef565b606091505b50600081511415611835576040517f08c379a000000000000000000000000000000000000000000000000000000000815260040161182c9061254d565b60405180910390fd5b805181602001fd5b63150b7a0260e01b7bffffffffffffffffffffffffffffffffffffffffffffffffffffffff1916817bffffffffffffffffffffffffffffffffffffffffffffffffffffffff191614915050611892565b600190505b949350505050565b600073ffffffffffffffffffffffffffffffffffffffff168273ffffffffffffffffffffffffffffffffffffffff16141561190a576040517f08c379a00000000000000000000000000000000000000000000000000000000081526004016119019061266d565b60405180910390fd5b6119138161117e565b15611953576040517f08c379a000000000000000000000000000000000000000000000000000000000815260040161194a9061258d565b60405180910390fd5b61195f600083836116a3565b6001600360008473ffffffffffffffffffffffffffffffffffffffff1673ffffffffffffffffffffffffffffffffffffffff16815260200190815260200160002060008282546119af9190612821565b92505081905550816002600083815260200190815260200160002060006101000a81548173ffffffffffffffffffffffffffffffffffffffff021916908373ffffffffffffffffffffffffffffffffffffffff160217905550808273ffffffffffffffffffffffffffffffffffffffff16600073ffffffffffffffffffffffffffffffffffffffff167fddf252ad1be2c89b69c2b068fc378daa952ba7f163c4a11628f55a4df523b3ef60405160405180910390a45050565b600080823b905060008111915050919050565b6000611a8e611a8984612799565b612768565b905082815260208101848484011115611aa657600080fd5b611ab1848285612950565b509392505050565b600081359050611ac881612ac2565b92915050565b600081359050611add81612ad9565b92915050565b600081359050611af281612af0565b92915050565b600081519050611b0781612af0565b92915050565b600082601f830112611b1e57600080fd5b8135611b2e848260208601611a7b565b91505092915050565b600081359050611b4681612b07565b92915050565b600060208284031215611b5e57600080fd5b6000611b6c84828501611ab9565b91505092915050565b60008060408385031215611b8857600080fd5b6000611b9685828601611ab9565b9250506020611ba785828601611ab9565b9150509250929050565b600080600060608486031215611bc657600080fd5b6000611bd486828701611ab9565b9350506020611be586828701611ab9565b9250506040611bf686828701611b37565b9150509250925092565b60008060008060808587031215611c1657600080fd5b6000611c2487828801611ab9565b9450506020611c3587828801611ab9565b9350506040611c4687828801611b37565b925050606085013567ffffffffffffffff811115611c6357600080fd5b611c6f87828801611b0d565b91505092959194509250565b60008060408385031215611c8e57600080fd5b6000611c9c85828601611ab9565b9250506020611cad85828601611ace565b9150509250929050565b60008060408385031215611cca57600080fd5b6000611cd885828601611ab9565b9250506020611ce985828601611b37565b9150509250929050565b600060208284031215611d0557600080fd5b6000611d1384828501611ae3565b91505092915050565b600060208284031215611d2e57600080fd5b6000611d3c84828501611af8565b91505092915050565b600060208284031215611d5757600080fd5b6000611d6584828501611b37565b91505092915050565b611d77816128dc565b82525050565b611d86816128ee565b82525050565b6000611d97826127de565b611da181856127f4565b9350611db181856020860161295f565b611dba81612ab1565b840191505092915050565b6000611dd0826127e9565b611dda8185612805565b9350611dea81856020860161295f565b611df381612ab1565b840191505092915050565b6000611e09826127e9565b611e138185612816565b9350611e2381856020860161295f565b80840191505092915050565b60008154611e3c81612992565b611e468186612816565b94506001821660008114611e615760018114611e7257611ea5565b60ff19831686528186019350611ea5565b611e7b856127c9565b60005b83811015611e9d57815481890152600182019150602081019050611e7e565b838801955050505b50505092915050565b6000611ebb603283612805565b91507f4552433732313a207472616e7366657220746f206e6f6e20455243373231526560008301527f63656976657220696d706c656d656e74657200000000000000000000000000006020830152604082019050919050565b6000611f21602683612805565b91507f4f776e61626c653a206e6577206f776e657220697320746865207a65726f206160008301527f64647265737300000000000000000000000000000000000000000000000000006020830152604082019050919050565b6000611f87601c83612805565b91507f4552433732313a20746f6b656e20616c7265616479206d696e746564000000006000830152602082019050919050565b6000611fc7602483612805565b91507f4552433732313a207472616e7366657220746f20746865207a65726f2061646460008301527f72657373000000000000000000000000000000000000000000000000000000006020830152604082019050919050565b600061202d601983612805565b91507f4552433732313a20617070726f766520746f2063616c6c6572000000000000006000830152602082019050919050565b600061206d602c83612805565b91507f4552433732313a206f70657261746f7220717565727920666f72206e6f6e657860008301527f697374656e7420746f6b656e00000000000000000000000000000000000000006020830152604082019050919050565b60006120d3603883612805565b91507f4552433732313a20617070726f76652063616c6c6572206973206e6f74206f7760008301527f6e6572206e6f7220617070726f76656420666f7220616c6c00000000000000006020830152604082019050919050565b6000612139602a83612805565b91507f4552433732313a2062616c616e636520717565727920666f7220746865207a6560008301527f726f2061646472657373000000000000000000000000000000000000000000006020830152604082019050919050565b600061219f602983612805565b91507f4552433732313a206f776e657220717565727920666f72206e6f6e657869737460008301527f656e7420746f6b656e00000000000000000000000000000000000000000000006020830152604082019050919050565b6000612205602083612805565b91507f4552433732313a206d696e7420746f20746865207a65726f20616464726573736000830152602082019050919050565b6000612245602c83612805565b91507f4552433732313a20617070726f76656420717565727920666f72206e6f6e657860008301527f697374656e7420746f6b656e00000000000000000000000000000000000000006020830152604082019050919050565b60006122ab602083612805565b91507f4f776e61626c653a2063616c6c6572206973206e6f7420746865206f776e65726000830152602082019050919050565b60006122eb602983612805565b91507f4552433732313a207472616e73666572206f6620746f6b656e2074686174206960008301527f73206e6f74206f776e00000000000000000000000000000000000000000000006020830152604082019050919050565b6000612351602f83612805565b91507f4552433732314d657461646174613a2055524920717565727920666f72206e6f60008301527f6e6578697374656e7420746f6b656e00000000000000000000000000000000006020830152604082019050919050565b60006123b7602183612805565b91507f4552433732313a20617070726f76616c20746f2063757272656e74206f776e6560008301527f72000000000000000000000000000000000000000000000000000000000000006020830152604082019050919050565b600061241d603183612805565b91507f4552433732313a207472616e736665722063616c6c6572206973206e6f74206f60008301527f776e6572206e6f7220617070726f7665640000000000000000000000000000006020830152604082019050919050565b61247f81612946565b82525050565b60006124918285611dfe565b915061249d8284611e2f565b91508190509392505050565b60006020820190506124be6000830184611d6e565b92915050565b60006080820190506124d96000830187611d6e565b6124e66020830186611d6e565b6124f36040830185612476565b81810360608301526125058184611d8c565b905095945050505050565b60006020820190506125256000830184611d7d565b92915050565b600060208201905081810360008301526125458184611dc5565b905092915050565b6000602082019050818103600083015261256681611eae565b9050919050565b6000602082019050818103600083015261258681611f14565b9050919050565b600060208201905081810360008301526125a681611f7a565b9050919050565b600060208201905081810360008301526125c681611fba565b9050919050565b600060208201905081810360008301526125e681612020565b9050919050565b6000602082019050818103600083015261260681612060565b9050919050565b60006020820190508181036000830152612626816120c6565b9050919050565b600060208201905081810360008301526126468161212c565b9050919050565b6000602082019050818103600083015261266681612192565b9050919050565b60006020820190508181036000830152612686816121f8565b9050919050565b600060208201905081810360008301526126a681612238565b9050919050565b600060208201905081810360008301526126c68161229e565b9050919050565b600060208201905081810360008301526126e6816122de565b9050919050565b6000602082019050818103600083015261270681612344565b9050919050565b60006020820190508181036000830152612726816123aa565b9050919050565b6000602082019050818103600083015261274681612410565b9050919050565b60006020820190506127626000830184612476565b92915050565b6000604051905081810181811067ffffffffffffffff8211171561278f5761278e612a82565b5b8060405250919050565b600067ffffffffffffffff8211156127b4576127b3612a82565b5b601f19601f8301169050602081019050919050565b60008190508160005260206000209050919050565b600081519050919050565b600081519050919050565b600082825260208201905092915050565b600082825260208201905092915050565b600081905092915050565b600061282c82612946565b915061283783612946565b9250827fffffffffffffffffffffffffffffffffffffffffffffffffffffffffffffffff0382111561286c5761286b6129f5565b5b828201905092915050565b600061288282612946565b915061288d83612946565b92508261289d5761289c612a24565b5b828204905092915050565b60006128b382612946565b91506128be83612946565b9250828210156128d1576128d06129f5565b5b828203905092915050565b60006128e782612926565b9050919050565b60008115159050919050565b60007fffffffff0000000000000000000000000000000000000000000000000000000082169050919050565b600073ffffffffffffffffffffffffffffffffffffffff82169050919050565b6000819050919050565b82818337600083830152505050565b60005b8381101561297d578082015181840152602081019050612962565b8381111561298c576000848401525b50505050565b600060028204905060018216806129aa57607f821691505b602082108114156129be576129bd612a53565b5b50919050565b60006129cf82612946565b91506129da83612946565b9250826129ea576129e9612a24565b5b828206905092915050565b7f4e487b7100000000000000000000000000000000000000000000000000000000600052601160045260246000fd5b7f4e487b7100000000000000000000000000000000000000000000000000000000600052601260045260246000fd5b7f4e487b7100000000000000000000000000000000000000000000000000000000600052602260045260246000fd5b7f4e487b7100000000000000000000000000000000000000000000000000000000600052604160045260246000fd5b6000601f19601f8301169050919050565b612acb816128dc565b8114612ad657600080fd5b50565b612ae2816128ee565b8114612aed57600080fd5b50565b612af9816128fa565b8114612b0457600080fd5b50565b612b1081612946565b8114612b1b57600080fd5b5056fe68747470733a2f2f676174657761792e70696e6174612e636c6f75642f697066732fa2646970667358221220400895039a498b3e56f6b1cf4a4445751e6719d187e098497e79ca0d2601391364736f6c63430008000033516d576f67507a7447586957367462436345666b326d3831396e31515072514b3745566e78675a64505652555044516d4e61774b474e5178776554457a4b41444d6f71586241737943445952334b57627343737472617a4b62774643",
  "linkReferences": {},
  "deployedLinkReferences": {}
}