{
  "_format": "hh-sol-artifact-1",
  "contractName": "LoveForTheLow",
  "sourceName": "contracts/LoveForTheLow.sol",
  "abi": [
    {
      "inputs": [],
      "stateMutability": "nonpayable",
      "type": "constructor"
    },
    {
      "anonymous": false,
      "inputs": [
        {
          "indexed": true,
          "internalType": "address",
          "name": "owner",
          "type": "address"
        },
        {
          "indexed": true,
          "internalType": "address",
          "name": "approved",
          "type": "address"
        },
        {
          "indexed": true,
          "internalType": "uint256",
          "name": "tokenId",
          "type": "uint256"
        }
      ],
      "name": "Approval",
      "type": "event"
    },
    {
      "anonymous": false,
      "inputs": [
        {
          "indexed": true,
          "internalType": "address",
          "name": "owner",
          "type": "address"
        },
        {
          "indexed": true,
          "internalType": "address",
          "name": "operator",
          "type": "address"
        },
        {
          "indexed": false,
          "internalType": "bool",
          "name": "approved",
          "type": "bool"
        }
      ],
      "name": "ApprovalForAll",
      "type": "event"
    },
    {
      "anonymous": false,
      "inputs": [
        {
          "indexed": true,
          "internalType": "address",
          "name": "previousOwner",
          "type": "address"
        },
        {
          "indexed": true,
          "internalType": "address",
          "name": "newOwner",
          "type": "address"
        }
      ],
      "name": "OwnershipTransferred",
      "type": "event"
    },
    {
      "anonymous": false,
      "inputs": [
        {
          "indexed": true,
          "internalType": "address",
          "name": "from",
          "type": "address"
        },
        {
          "indexed": true,
          "internalType": "address",
          "name": "to",
          "type": "address"
        },
        {
          "indexed": true,
          "internalType": "uint256",
          "name": "tokenId",
          "type": "uint256"
        }
      ],
      "name": "Transfer",
      "type": "event"
    },
    {
      "inputs": [
        {
          "internalType": "address",
          "name": "to",
          "type": "address"
        },
        {
          "internalType": "uint256",
          "name": "tokenId",
          "type": "uint256"
        }
      ],
      "name": "approve",
      "outputs": [],
      "stateMutability": "nonpayable",
      "type": "function"
    },
    {
      "inputs": [
        {
          "internalType": "address",
          "name": "owner",
          "type": "address"
        }
      ],
      "name": "balanceOf",
      "outputs": [
        {
          "internalType": "uint256",
          "name": "",
          "type": "uint256"
        }
      ],
      "stateMutability": "view",
      "type": "function"
    },
    {
      "inputs": [
        {
          "internalType": "uint256",
          "name": "tokenId",
          "type": "uint256"
        }
      ],
      "name": "getApproved",
      "outputs": [
        {
          "internalType": "address",
          "name": "",
          "type": "address"
        }
      ],
      "stateMutability": "view",
      "type": "function"
    },
    {
      "inputs": [
        {
          "internalType": "address",
          "name": "owner",
          "type": "address"
        },
        {
          "internalType": "address",
          "name": "operator",
          "type": "address"
        }
      ],
      "name": "isApprovedForAll",
      "outputs": [
        {
          "internalType": "bool",
          "name": "",
          "type": "bool"
        }
      ],
      "stateMutability": "view",
      "type": "function"
    },
    {
      "inputs": [
        {
          "internalType": "address",
          "name": "recipient",
          "type": "address"
        }
      ],
      "name": "mintRoses",
      "outputs": [
        {
          "internalType": "uint256",
          "name": "",
          "type": "uint256"
        }
      ],
      "stateMutability": "nonpayable",
      "type": "function"
    },
    {
      "inputs": [],
      "name": "name",
      "outputs": [
        {
          "internalType": "string",
          "name": "",
          "type": "string"
        }
      ],
      "stateMutability": "view",
      "type": "function"
    },
    {
      "inputs": [],
      "name": "owner",
      "outputs": [
        {
          "internalType": "address",
          "name": "",
          "type": "address"
        }
      ],
      "stateMutability": "view",
      "type": "function"
    },
    {
      "inputs": [
        {
          "internalType": "uint256",
          "name": "tokenId",
          "type": "uint256"
        }
      ],
      "name": "ownerOf",
      "outputs": [
        {
          "internalType": "address",
          "name": "",
          "type": "address"
        }
      ],
      "stateMutability": "view",
      "type": "function"
    },
    {
      "inputs": [],
      "name": "renounceOwnership",
      "outputs": [],
      "stateMutability": "nonpayable",
      "type": "function"
    },
    {
      "inputs": [
        {
          "internalType": "address",
          "name": "from",
          "type": "address"
        },
        {
          "internalType": "address",
          "name": "to",
          "type": "address"
        },
        {
          "internalType": "uint256",
          "name": "tokenId",
          "type": "uint256"
        }
      ],
      "name": "safeTransferFrom",
      "outputs": [],
      "stateMutability": "nonpayable",
      "type": "function"
    },
    {
      "inputs": [
        {
          "internalType": "address",
          "name": "from",
          "type": "address"
        },
        {
          "internalType": "address",
          "name": "to",
          "type": "address"
        },
        {
          "internalType": "uint256",
          "name": "tokenId",
          "type": "uint256"
        },
        {
          "internalType": "bytes",
          "name": "_data",
          "type": "bytes"
        }
      ],
      "name": "safeTransferFrom",
      "outputs": [],
      "stateMutability": "nonpayable",
      "type": "function"
    },
    {
      "inputs": [
        {
          "internalType": "address",
          "name": "operator",
          "type": "address"
        },
        {
          "internalType": "bool",
          "name": "approved",
          "type": "bool"
        }
      ],
      "name": "setApprovalForAll",
      "outputs": [],
      "stateMutability": "nonpayable",
      "type": "function"
    },
    {
      "inputs": [
        {
          "internalType": "bytes4",
          "name": "interfaceId",
          "type": "bytes4"
        }
      ],
      "name": "supportsInterface",
      "outputs": [
        {
          "internalType": "bool",
          "name": "",
          "type": "bool"
        }
      ],
      "stateMutability": "view",
      "type": "function"
    },
    {
      "inputs": [],
      "name": "symbol",
      "outputs": [
        {
          "internalType": "string",
          "name": "",
          "type": "string"
        }
      ],
      "stateMutability": "view",
      "type": "function"
    },
    {
      "inputs": [
        {
          "internalType": "uint256",
          "name": "tokenId",
          "type": "uint256"
        }
      ],
      "name": "tokenURI",
      "outputs": [
        {
          "internalType": "string",
          "name": "",
          "type": "string"
        }
      ],
      "stateMutability": "view",
      "type": "function"
    },
    {
      "inputs": [
        {
          "internalType": "address",
          "name": "from",
          "type": "address"
        },
        {
          "internalType": "address",
          "name": "to",
          "type": "address"
        },
        {
          "internalType": "uint256",
          "name": "tokenId",
          "type": "uint256"
        }
      ],
      "name": "transferFrom",
      "outputs": [],
      "stateMutability": "nonpayable",
      "type": "function"
    },
    {
      "inputs": [
        {
          "internalType": "address",
          "name": "newOwner",
          "type": "address"
        }
      ],
      "name": "transferOwnership",
      "outputs": [],
      "stateMutability": "nonpayable",
      "type": "function"
    }
  ],
  "bytecode": "0x60806040523480156200001157600080fd5b506040518060400160405280601781526020017f4c4f47494b3a204c6f766520666f7220746865204c6f77000000000000000000815250604051806020016040528060008152508160009080519060200190620000709291906200014b565b508060019080519060200190620000899291906200014b565b50505060006200009e6200014360201b60201c565b905080600660006101000a81548173ffffffffffffffffffffffffffffffffffffffff021916908373ffffffffffffffffffffffffffffffffffffffff1602179055508073ffffffffffffffffffffffffffffffffffffffff16600073ffffffffffffffffffffffffffffffffffffffff167f8be0079c531659141344cd1fd0a4f28419497f9722a3daafe3b4186f6b6457e060405160405180910390a35062000260565b600033905090565b8280546200015990620001fb565b90600052602060002090601f0160209004810192826200017d5760008555620001c9565b82601f106200019857805160ff1916838001178555620001c9565b82800160010185558215620001c9579182015b82811115620001c8578251825591602001919060010190620001ab565b5b509050620001d89190620001dc565b5090565b5b80821115620001f7576000816000905550600101620001dd565b5090565b600060028204905060018216806200021457607f821691505b602082108114156200022b576200022a62000231565b5b50919050565b7f4e487b7100000000000000000000000000000000000000000000000000000000600052602260045260246000fd5b61293580620002706000396000f3fe608060405234801561001057600080fd5b506004361061010b5760003560e01c806370a08231116100a2578063a22cb46511610071578063a22cb465146102b8578063b88d4fde146102d4578063c87b56dd146102f0578063e985e9c514610320578063f2fde38b146103505761010b565b806370a0823114610242578063715018a6146102725780638da5cb5b1461027c57806395d89b411461029a5761010b565b806323b872dd116100de57806323b872dd146101aa57806323f1620a146101c657806342842e0e146101f65780636352211e146102125761010b565b806301ffc9a71461011057806306fdde0314610140578063081812fc1461015e578063095ea7b31461018e575b600080fd5b61012a60048036038101906101259190611ba9565b61036c565b6040516101379190612347565b60405180910390f35b61014861044e565b6040516101559190612362565b60405180910390f35b61017860048036038101906101739190611bfb565b6104e0565b60405161018591906122e0565b60405180910390f35b6101a860048036038101906101a39190611b6d565b610565565b005b6101c460048036038101906101bf9190611a67565b61067d565b005b6101e060048036038101906101db9190611a02565b6106dd565b6040516101ed9190612584565b60405180910390f35b610210600480360381019061020b9190611a67565b610786565b005b61022c60048036038101906102279190611bfb565b6107a6565b60405161023991906122e0565b60405180910390f35b61025c60048036038101906102579190611a02565b610858565b6040516102699190612584565b60405180910390f35b61027a610910565b005b610284610a4d565b60405161029191906122e0565b60405180910390f35b6102a2610a77565b6040516102af9190612362565b60405180910390f35b6102d260048036038101906102cd9190611b31565b610b09565b005b6102ee60048036038101906102e99190611ab6565b610c8a565b005b61030a60048036038101906103059190611bfb565b610cec565b6040516103179190612362565b60405180910390f35b61033a60048036038101906103359190611a2b565b610d8a565b6040516103479190612347565b60405180910390f35b61036a60048036038101906103659190611a02565b610e1e565b005b60007f80ac58cd000000000000000000000000000000000000000000000000000000007bffffffffffffffffffffffffffffffffffffffffffffffffffffffff1916827bffffffffffffffffffffffffffffffffffffffffffffffffffffffff1916148061043757507f5b5e139f000000000000000000000000000000000000000000000000000000007bffffffffffffffffffffffffffffffffffffffffffffffffffffffff1916827bffffffffffffffffffffffffffffffffffffffffffffffffffffffff1916145b80610447575061044682610fca565b5b9050919050565b60606000805461045d90612783565b80601f016020809104026020016040519081016040528092919081815260200182805461048990612783565b80156104d65780601f106104ab576101008083540402835291602001916104d6565b820191906000526020600020905b8154815290600101906020018083116104b957829003601f168201915b5050505050905090565b60006104eb82611034565b61052a576040517f08c379a0000000000000000000000000000000000000000000000000000000008152600401610521906124c4565b60405180910390fd5b6004600083815260200190815260200160002060009054906101000a900473ffffffffffffffffffffffffffffffffffffffff169050919050565b6000610570826107a6565b90508073ffffffffffffffffffffffffffffffffffffffff168373ffffffffffffffffffffffffffffffffffffffff1614156105e1576040517f08c379a00000000000000000000000000000000000000000000000000000000081526004016105d890612544565b60405180910390fd5b8073ffffffffffffffffffffffffffffffffffffffff166106006110a0565b73ffffffffffffffffffffffffffffffffffffffff16148061062f575061062e816106296110a0565b610d8a565b5b61066e576040517f08c379a000000000000000000000000000000000000000000000000000000000815260040161066590612444565b60405180910390fd5b61067883836110a8565b505050565b61068e6106886110a0565b82611161565b6106cd576040517f08c379a00000000000000000000000000000000000000000000000000000000081526004016106c490612564565b60405180910390fd5b6106d883838361123f565b505050565b60006106e76110a0565b73ffffffffffffffffffffffffffffffffffffffff16610705610a4d565b73ffffffffffffffffffffffffffffffffffffffff161461075b576040517f08c379a0000000000000000000000000000000000000000000000000000000008152600401610752906124e4565b60405180910390fd5b610765600761149b565b600061077160076114b1565b905061077d83826114bf565b80915050919050565b6107a183838360405180602001604052806000815250610c8a565b505050565b6000806002600084815260200190815260200160002060009054906101000a900473ffffffffffffffffffffffffffffffffffffffff169050600073ffffffffffffffffffffffffffffffffffffffff168173ffffffffffffffffffffffffffffffffffffffff16141561084f576040517f08c379a000000000000000000000000000000000000000000000000000000000815260040161084690612484565b60405180910390fd5b80915050919050565b60008073ffffffffffffffffffffffffffffffffffffffff168273ffffffffffffffffffffffffffffffffffffffff1614156108c9576040517f08c379a00000000000000000000000000000000000000000000000000000000081526004016108c090612464565b60405180910390fd5b600360008373ffffffffffffffffffffffffffffffffffffffff1673ffffffffffffffffffffffffffffffffffffffff168152602001908152602001600020549050919050565b6109186110a0565b73ffffffffffffffffffffffffffffffffffffffff16610936610a4d565b73ffffffffffffffffffffffffffffffffffffffff161461098c576040517f08c379a0000000000000000000000000000000000000000000000000000000008152600401610983906124e4565b60405180910390fd5b600073ffffffffffffffffffffffffffffffffffffffff16600660009054906101000a900473ffffffffffffffffffffffffffffffffffffffff1673ffffffffffffffffffffffffffffffffffffffff167f8be0079c531659141344cd1fd0a4f28419497f9722a3daafe3b4186f6b6457e060405160405180910390a36000600660006101000a81548173ffffffffffffffffffffffffffffffffffffffff021916908373ffffffffffffffffffffffffffffffffffffffff160217905550565b6000600660009054906101000a900473ffffffffffffffffffffffffffffffffffffffff16905090565b606060018054610a8690612783565b80601f0160208091040260200160405190810160405280929190818152602001828054610ab290612783565b8015610aff5780601f10610ad457610100808354040283529160200191610aff565b820191906000526020600020905b815481529060010190602001808311610ae257829003601f168201915b5050505050905090565b610b116110a0565b73ffffffffffffffffffffffffffffffffffffffff168273ffffffffffffffffffffffffffffffffffffffff161415610b7f576040517f08c379a0000000000000000000000000000000000000000000000000000000008152600401610b7690612404565b60405180910390fd5b8060056000610b8c6110a0565b73ffffffffffffffffffffffffffffffffffffffff1673ffffffffffffffffffffffffffffffffffffffff16815260200190815260200160002060008473ffffffffffffffffffffffffffffffffffffffff1673ffffffffffffffffffffffffffffffffffffffff16815260200190815260200160002060006101000a81548160ff0219169083151502179055508173ffffffffffffffffffffffffffffffffffffffff16610c396110a0565b73ffffffffffffffffffffffffffffffffffffffff167f17307eab39ab6107e8899845ad3d59bd9653f200f220920489ca2b5937696c3183604051610c7e9190612347565b60405180910390a35050565b610c9b610c956110a0565b83611161565b610cda576040517f08c379a0000000000000000000000000000000000000000000000000000000008152600401610cd190612564565b60405180910390fd5b610ce6848484846114dd565b50505050565b6060610cf782611034565b610d36576040517f08c379a0000000000000000000000000000000000000000000000000000000008152600401610d2d90612524565b60405180910390fd5b6000610d40611539565b905060006040518060600160405280602e81526020016128d2602e913990508181604051602001610d729291906122bc565b60405160208183030381529060405292505050919050565b6000600560008473ffffffffffffffffffffffffffffffffffffffff1673ffffffffffffffffffffffffffffffffffffffff16815260200190815260200160002060008373ffffffffffffffffffffffffffffffffffffffff1673ffffffffffffffffffffffffffffffffffffffff16815260200190815260200160002060009054906101000a900460ff16905092915050565b610e266110a0565b73ffffffffffffffffffffffffffffffffffffffff16610e44610a4d565b73ffffffffffffffffffffffffffffffffffffffff1614610e9a576040517f08c379a0000000000000000000000000000000000000000000000000000000008152600401610e91906124e4565b60405180910390fd5b600073ffffffffffffffffffffffffffffffffffffffff168173ffffffffffffffffffffffffffffffffffffffff161415610f0a576040517f08c379a0000000000000000000000000000000000000000000000000000000008152600401610f01906123a4565b60405180910390fd5b8073ffffffffffffffffffffffffffffffffffffffff16600660009054906101000a900473ffffffffffffffffffffffffffffffffffffffff1673ffffffffffffffffffffffffffffffffffffffff167f8be0079c531659141344cd1fd0a4f28419497f9722a3daafe3b4186f6b6457e060405160405180910390a380600660006101000a81548173ffffffffffffffffffffffffffffffffffffffff021916908373ffffffffffffffffffffffffffffffffffffffff16021790555050565b60007f01ffc9a7000000000000000000000000000000000000000000000000000000007bffffffffffffffffffffffffffffffffffffffffffffffffffffffff1916827bffffffffffffffffffffffffffffffffffffffffffffffffffffffff1916149050919050565b60008073ffffffffffffffffffffffffffffffffffffffff166002600084815260200190815260200160002060009054906101000a900473ffffffffffffffffffffffffffffffffffffffff1673ffffffffffffffffffffffffffffffffffffffff1614159050919050565b600033905090565b816004600083815260200190815260200160002060006101000a81548173ffffffffffffffffffffffffffffffffffffffff021916908373ffffffffffffffffffffffffffffffffffffffff160217905550808273ffffffffffffffffffffffffffffffffffffffff1661111b836107a6565b73ffffffffffffffffffffffffffffffffffffffff167f8c5be1e5ebec7d5bd14f71427d1e84f3dd0314c0f7b2291e5b200ac8c7c3b92560405160405180910390a45050565b600061116c82611034565b6111ab576040517f08c379a00000000000000000000000000000000000000000000000000000000081526004016111a290612424565b60405180910390fd5b60006111b6836107a6565b90508073ffffffffffffffffffffffffffffffffffffffff168473ffffffffffffffffffffffffffffffffffffffff16148061122557508373ffffffffffffffffffffffffffffffffffffffff1661120d846104e0565b73ffffffffffffffffffffffffffffffffffffffff16145b8061123657506112358185610d8a565b5b91505092915050565b8273ffffffffffffffffffffffffffffffffffffffff1661125f826107a6565b73ffffffffffffffffffffffffffffffffffffffff16146112b5576040517f08c379a00000000000000000000000000000000000000000000000000000000081526004016112ac90612504565b60405180910390fd5b600073ffffffffffffffffffffffffffffffffffffffff168273ffffffffffffffffffffffffffffffffffffffff161415611325576040517f08c379a000000000000000000000000000000000000000000000000000000000815260040161131c906123e4565b60405180910390fd5b611330838383611559565b61133b6000826110a8565b6001600360008573ffffffffffffffffffffffffffffffffffffffff1673ffffffffffffffffffffffffffffffffffffffff168152602001908152602001600020600082825461138b9190612699565b925050819055506001600360008473ffffffffffffffffffffffffffffffffffffffff1673ffffffffffffffffffffffffffffffffffffffff16815260200190815260200160002060008282546113e29190612643565b92505081905550816002600083815260200190815260200160002060006101000a81548173ffffffffffffffffffffffffffffffffffffffff021916908373ffffffffffffffffffffffffffffffffffffffff160217905550808273ffffffffffffffffffffffffffffffffffffffff168473ffffffffffffffffffffffffffffffffffffffff167fddf252ad1be2c89b69c2b068fc378daa952ba7f163c4a11628f55a4df523b3ef60405160405180910390a4505050565b6001816000016000828254019250508190555050565b600081600001549050919050565b6114d982826040518060200160405280600081525061155e565b5050565b6114e884848461123f565b6114f4848484846115b9565b611533576040517f08c379a000000000000000000000000000000000000000000000000000000000815260040161152a90612384565b60405180910390fd5b50505050565b60606040518060600160405280602281526020016128b060229139905090565b505050565b6115688383611750565b61157560008484846115b9565b6115b4576040517f08c379a00000000000000000000000000000000000000000000000000000000081526004016115ab90612384565b60405180910390fd5b505050565b60006115da8473ffffffffffffffffffffffffffffffffffffffff1661191e565b15611743578373ffffffffffffffffffffffffffffffffffffffff1663150b7a026116036110a0565b8786866040518563ffffffff1660e01b815260040161162594939291906122fb565b602060405180830381600087803b15801561163f57600080fd5b505af192505050801561167057506040513d601f19601f8201168201806040525081019061166d9190611bd2565b60015b6116f3573d80600081146116a0576040519150601f19603f3d011682016040523d82523d6000602084013e6116a5565b606091505b506000815114156116eb576040517f08c379a00000000000000000000000000000000000000000000000000000000081526004016116e290612384565b60405180910390fd5b805181602001fd5b63150b7a0260e01b7bffffffffffffffffffffffffffffffffffffffffffffffffffffffff1916817bffffffffffffffffffffffffffffffffffffffffffffffffffffffff191614915050611748565b600190505b949350505050565b600073ffffffffffffffffffffffffffffffffffffffff168273ffffffffffffffffffffffffffffffffffffffff1614156117c0576040517f08c379a00000000000000000000000000000000000000000000000000000000081526004016117b7906124a4565b60405180910390fd5b6117c981611034565b15611809576040517f08c379a0000000000000000000000000000000000000000000000000000000008152600401611800906123c4565b60405180910390fd5b61181560008383611559565b6001600360008473ffffffffffffffffffffffffffffffffffffffff1673ffffffffffffffffffffffffffffffffffffffff16815260200190815260200160002060008282546118659190612643565b92505081905550816002600083815260200190815260200160002060006101000a81548173ffffffffffffffffffffffffffffffffffffffff021916908373ffffffffffffffffffffffffffffffffffffffff160217905550808273ffffffffffffffffffffffffffffffffffffffff16600073ffffffffffffffffffffffffffffffffffffffff167fddf252ad1be2c89b69c2b068fc378daa952ba7f163c4a11628f55a4df523b3ef60405160405180910390a45050565b600080823b905060008111915050919050565b600061194461193f846125d0565b61259f565b90508281526020810184848401111561195c57600080fd5b611967848285612741565b509392505050565b60008135905061197e81612853565b92915050565b6000813590506119938161286a565b92915050565b6000813590506119a881612881565b92915050565b6000815190506119bd81612881565b92915050565b600082601f8301126119d457600080fd5b81356119e4848260208601611931565b91505092915050565b6000813590506119fc81612898565b92915050565b600060208284031215611a1457600080fd5b6000611a228482850161196f565b91505092915050565b60008060408385031215611a3e57600080fd5b6000611a4c8582860161196f565b9250506020611a5d8582860161196f565b9150509250929050565b600080600060608486031215611a7c57600080fd5b6000611a8a8682870161196f565b9350506020611a9b8682870161196f565b9250506040611aac868287016119ed565b9150509250925092565b60008060008060808587031215611acc57600080fd5b6000611ada8782880161196f565b9450506020611aeb8782880161196f565b9350506040611afc878288016119ed565b925050606085013567ffffffffffffffff811115611b1957600080fd5b611b25878288016119c3565b91505092959194509250565b60008060408385031215611b4457600080fd5b6000611b528582860161196f565b9250506020611b6385828601611984565b9150509250929050565b60008060408385031215611b8057600080fd5b6000611b8e8582860161196f565b9250506020611b9f858286016119ed565b9150509250929050565b600060208284031215611bbb57600080fd5b6000611bc984828501611999565b91505092915050565b600060208284031215611be457600080fd5b6000611bf2848285016119ae565b91505092915050565b600060208284031215611c0d57600080fd5b6000611c1b848285016119ed565b91505092915050565b611c2d816126cd565b82525050565b611c3c816126df565b82525050565b6000611c4d82612600565b611c578185612616565b9350611c67818560208601612750565b611c7081612842565b840191505092915050565b6000611c868261260b565b611c908185612627565b9350611ca0818560208601612750565b611ca981612842565b840191505092915050565b6000611cbf8261260b565b611cc98185612638565b9350611cd9818560208601612750565b80840191505092915050565b6000611cf2603283612627565b91507f4552433732313a207472616e7366657220746f206e6f6e20455243373231526560008301527f63656976657220696d706c656d656e74657200000000000000000000000000006020830152604082019050919050565b6000611d58602683612627565b91507f4f776e61626c653a206e6577206f776e657220697320746865207a65726f206160008301527f64647265737300000000000000000000000000000000000000000000000000006020830152604082019050919050565b6000611dbe601c83612627565b91507f4552433732313a20746f6b656e20616c7265616479206d696e746564000000006000830152602082019050919050565b6000611dfe602483612627565b91507f4552433732313a207472616e7366657220746f20746865207a65726f2061646460008301527f72657373000000000000000000000000000000000000000000000000000000006020830152604082019050919050565b6000611e64601983612627565b91507f4552433732313a20617070726f766520746f2063616c6c6572000000000000006000830152602082019050919050565b6000611ea4602c83612627565b91507f4552433732313a206f70657261746f7220717565727920666f72206e6f6e657860008301527f697374656e7420746f6b656e00000000000000000000000000000000000000006020830152604082019050919050565b6000611f0a603883612627565b91507f4552433732313a20617070726f76652063616c6c6572206973206e6f74206f7760008301527f6e6572206e6f7220617070726f76656420666f7220616c6c00000000000000006020830152604082019050919050565b6000611f70602a83612627565b91507f4552433732313a2062616c616e636520717565727920666f7220746865207a6560008301527f726f2061646472657373000000000000000000000000000000000000000000006020830152604082019050919050565b6000611fd6602983612627565b91507f4552433732313a206f776e657220717565727920666f72206e6f6e657869737460008301527f656e7420746f6b656e00000000000000000000000000000000000000000000006020830152604082019050919050565b600061203c602083612627565b91507f4552433732313a206d696e7420746f20746865207a65726f20616464726573736000830152602082019050919050565b600061207c602c83612627565b91507f4552433732313a20617070726f76656420717565727920666f72206e6f6e657860008301527f697374656e7420746f6b656e00000000000000000000000000000000000000006020830152604082019050919050565b60006120e2602083612627565b91507f4f776e61626c653a2063616c6c6572206973206e6f7420746865206f776e65726000830152602082019050919050565b6000612122602983612627565b91507f4552433732313a207472616e73666572206f6620746f6b656e2074686174206960008301527f73206e6f74206f776e00000000000000000000000000000000000000000000006020830152604082019050919050565b6000612188602f83612627565b91507f4552433732314d657461646174613a2055524920717565727920666f72206e6f60008301527f6e6578697374656e7420746f6b656e00000000000000000000000000000000006020830152604082019050919050565b60006121ee602183612627565b91507f4552433732313a20617070726f76616c20746f2063757272656e74206f776e6560008301527f72000000000000000000000000000000000000000000000000000000000000006020830152604082019050919050565b6000612254603183612627565b91507f4552433732313a207472616e736665722063616c6c6572206973206e6f74206f60008301527f776e6572206e6f7220617070726f7665640000000000000000000000000000006020830152604082019050919050565b6122b681612737565b82525050565b60006122c88285611cb4565b91506122d48284611cb4565b91508190509392505050565b60006020820190506122f56000830184611c24565b92915050565b60006080820190506123106000830187611c24565b61231d6020830186611c24565b61232a60408301856122ad565b818103606083015261233c8184611c42565b905095945050505050565b600060208201905061235c6000830184611c33565b92915050565b6000602082019050818103600083015261237c8184611c7b565b905092915050565b6000602082019050818103600083015261239d81611ce5565b9050919050565b600060208201905081810360008301526123bd81611d4b565b9050919050565b600060208201905081810360008301526123dd81611db1565b9050919050565b600060208201905081810360008301526123fd81611df1565b9050919050565b6000602082019050818103600083015261241d81611e57565b9050919050565b6000602082019050818103600083015261243d81611e97565b9050919050565b6000602082019050818103600083015261245d81611efd565b9050919050565b6000602082019050818103600083015261247d81611f63565b9050919050565b6000602082019050818103600083015261249d81611fc9565b9050919050565b600060208201905081810360008301526124bd8161202f565b9050919050565b600060208201905081810360008301526124dd8161206f565b9050919050565b600060208201905081810360008301526124fd816120d5565b9050919050565b6000602082019050818103600083015261251d81612115565b9050919050565b6000602082019050818103600083015261253d8161217b565b9050919050565b6000602082019050818103600083015261255d816121e1565b9050919050565b6000602082019050818103600083015261257d81612247565b9050919050565b600060208201905061259960008301846122ad565b92915050565b6000604051905081810181811067ffffffffffffffff821117156125c6576125c5612813565b5b8060405250919050565b600067ffffffffffffffff8211156125eb576125ea612813565b5b601f19601f8301169050602081019050919050565b600081519050919050565b600081519050919050565b600082825260208201905092915050565b600082825260208201905092915050565b600081905092915050565b600061264e82612737565b915061265983612737565b9250827fffffffffffffffffffffffffffffffffffffffffffffffffffffffffffffffff0382111561268e5761268d6127b5565b5b828201905092915050565b60006126a482612737565b91506126af83612737565b9250828210156126c2576126c16127b5565b5b828203905092915050565b60006126d882612717565b9050919050565b60008115159050919050565b60007fffffffff0000000000000000000000000000000000000000000000000000000082169050919050565b600073ffffffffffffffffffffffffffffffffffffffff82169050919050565b6000819050919050565b82818337600083830152505050565b60005b8381101561276e578082015181840152602081019050612753565b8381111561277d576000848401525b50505050565b6000600282049050600182168061279b57607f821691505b602082108114156127af576127ae6127e4565b5b50919050565b7f4e487b7100000000000000000000000000000000000000000000000000000000600052601160045260246000fd5b7f4e487b7100000000000000000000000000000000000000000000000000000000600052602260045260246000fd5b7f4e487b7100000000000000000000000000000000000000000000000000000000600052604160045260246000fd5b6000601f19601f8301169050919050565b61285c816126cd565b811461286757600080fd5b50565b612873816126df565b811461287e57600080fd5b50565b61288a816126eb565b811461289557600080fd5b50565b6128a181612737565b81146128ac57600080fd5b5056fe68747470733a2f2f676174657761792e70696e6174612e636c6f75642f697066732f516d56644538345a4a785436366a386e454556464b7677424b58737959596968486177486d4371734c4639714d76a2646970667358221220beeb931fbe74dc5c039000a8fcbd53d1e4719f795460cfc7a3302aeddb58e97364736f6c63430008000033",
  "linkReferences": {},
  "deployedLinkReferences": {}
}