{
  "_format": "hh-sol-artifact-1",
  "contractName": "LOGIKRocketLauncher",
  "sourceName": "contracts/LOGIKRocketLauncher.sol",
  "abi": [
    {
      "inputs": [],
      "stateMutability": "nonpayable",
      "type": "constructor"
    },
    {
      "anonymous": false,
      "inputs": [
        {
          "indexed": true,
          "internalType": "address",
          "name": "owner",
          "type": "address"
        },
        {
          "indexed": true,
          "internalType": "address",
          "name": "approved",
          "type": "address"
        },
        {
          "indexed": true,
          "internalType": "uint256",
          "name": "tokenId",
          "type": "uint256"
        }
      ],
      "name": "Approval",
      "type": "event"
    },
    {
      "anonymous": false,
      "inputs": [
        {
          "indexed": true,
          "internalType": "address",
          "name": "owner",
          "type": "address"
        },
        {
          "indexed": true,
          "internalType": "address",
          "name": "operator",
          "type": "address"
        },
        {
          "indexed": false,
          "internalType": "bool",
          "name": "approved",
          "type": "bool"
        }
      ],
      "name": "ApprovalForAll",
      "type": "event"
    },
    {
      "anonymous": false,
      "inputs": [
        {
          "indexed": true,
          "internalType": "address",
          "name": "previousOwner",
          "type": "address"
        },
        {
          "indexed": true,
          "internalType": "address",
          "name": "newOwner",
          "type": "address"
        }
      ],
      "name": "OwnershipTransferred",
      "type": "event"
    },
    {
      "anonymous": false,
      "inputs": [
        {
          "indexed": true,
          "internalType": "address",
          "name": "from",
          "type": "address"
        },
        {
          "indexed": true,
          "internalType": "address",
          "name": "to",
          "type": "address"
        },
        {
          "indexed": true,
          "internalType": "uint256",
          "name": "tokenId",
          "type": "uint256"
        }
      ],
      "name": "Transfer",
      "type": "event"
    },
    {
      "inputs": [
        {
          "internalType": "address",
          "name": "to",
          "type": "address"
        },
        {
          "internalType": "uint256",
          "name": "tokenId",
          "type": "uint256"
        }
      ],
      "name": "approve",
      "outputs": [],
      "stateMutability": "nonpayable",
      "type": "function"
    },
    {
      "inputs": [
        {
          "internalType": "address",
          "name": "owner",
          "type": "address"
        }
      ],
      "name": "balanceOf",
      "outputs": [
        {
          "internalType": "uint256",
          "name": "",
          "type": "uint256"
        }
      ],
      "stateMutability": "view",
      "type": "function"
    },
    {
      "inputs": [],
      "name": "daysSinceCreation",
      "outputs": [
        {
          "internalType": "uint256",
          "name": "",
          "type": "uint256"
        }
      ],
      "stateMutability": "view",
      "type": "function"
    },
    {
      "inputs": [
        {
          "internalType": "uint256",
          "name": "tokenId",
          "type": "uint256"
        }
      ],
      "name": "getApproved",
      "outputs": [
        {
          "internalType": "address",
          "name": "",
          "type": "address"
        }
      ],
      "stateMutability": "view",
      "type": "function"
    },
    {
      "inputs": [
        {
          "internalType": "address",
          "name": "owner",
          "type": "address"
        },
        {
          "internalType": "address",
          "name": "operator",
          "type": "address"
        }
      ],
      "name": "isApprovedForAll",
      "outputs": [
        {
          "internalType": "bool",
          "name": "",
          "type": "bool"
        }
      ],
      "stateMutability": "view",
      "type": "function"
    },
    {
      "inputs": [
        {
          "internalType": "address",
          "name": "recipient",
          "type": "address"
        }
      ],
      "name": "mintRocketLauncher",
      "outputs": [
        {
          "internalType": "uint256",
          "name": "",
          "type": "uint256"
        }
      ],
      "stateMutability": "nonpayable",
      "type": "function"
    },
    {
      "inputs": [],
      "name": "name",
      "outputs": [
        {
          "internalType": "string",
          "name": "",
          "type": "string"
        }
      ],
      "stateMutability": "view",
      "type": "function"
    },
    {
      "inputs": [],
      "name": "owner",
      "outputs": [
        {
          "internalType": "address",
          "name": "",
          "type": "address"
        }
      ],
      "stateMutability": "view",
      "type": "function"
    },
    {
      "inputs": [
        {
          "internalType": "uint256",
          "name": "tokenId",
          "type": "uint256"
        }
      ],
      "name": "ownerOf",
      "outputs": [
        {
          "internalType": "address",
          "name": "",
          "type": "address"
        }
      ],
      "stateMutability": "view",
      "type": "function"
    },
    {
      "inputs": [],
      "name": "renounceOwnership",
      "outputs": [],
      "stateMutability": "nonpayable",
      "type": "function"
    },
    {
      "inputs": [
        {
          "internalType": "address",
          "name": "from",
          "type": "address"
        },
        {
          "internalType": "address",
          "name": "to",
          "type": "address"
        },
        {
          "internalType": "uint256",
          "name": "tokenId",
          "type": "uint256"
        }
      ],
      "name": "safeTransferFrom",
      "outputs": [],
      "stateMutability": "nonpayable",
      "type": "function"
    },
    {
      "inputs": [
        {
          "internalType": "address",
          "name": "from",
          "type": "address"
        },
        {
          "internalType": "address",
          "name": "to",
          "type": "address"
        },
        {
          "internalType": "uint256",
          "name": "tokenId",
          "type": "uint256"
        },
        {
          "internalType": "bytes",
          "name": "_data",
          "type": "bytes"
        }
      ],
      "name": "safeTransferFrom",
      "outputs": [],
      "stateMutability": "nonpayable",
      "type": "function"
    },
    {
      "inputs": [
        {
          "internalType": "address",
          "name": "operator",
          "type": "address"
        },
        {
          "internalType": "bool",
          "name": "approved",
          "type": "bool"
        }
      ],
      "name": "setApprovalForAll",
      "outputs": [],
      "stateMutability": "nonpayable",
      "type": "function"
    },
    {
      "inputs": [
        {
          "internalType": "bytes4",
          "name": "interfaceId",
          "type": "bytes4"
        }
      ],
      "name": "supportsInterface",
      "outputs": [
        {
          "internalType": "bool",
          "name": "",
          "type": "bool"
        }
      ],
      "stateMutability": "view",
      "type": "function"
    },
    {
      "inputs": [],
      "name": "symbol",
      "outputs": [
        {
          "internalType": "string",
          "name": "",
          "type": "string"
        }
      ],
      "stateMutability": "view",
      "type": "function"
    },
    {
      "inputs": [
        {
          "internalType": "uint256",
          "name": "tokenId",
          "type": "uint256"
        }
      ],
      "name": "tokenURI",
      "outputs": [
        {
          "internalType": "string",
          "name": "",
          "type": "string"
        }
      ],
      "stateMutability": "view",
      "type": "function"
    },
    {
      "inputs": [
        {
          "internalType": "address",
          "name": "from",
          "type": "address"
        },
        {
          "internalType": "address",
          "name": "to",
          "type": "address"
        },
        {
          "internalType": "uint256",
          "name": "tokenId",
          "type": "uint256"
        }
      ],
      "name": "transferFrom",
      "outputs": [],
      "stateMutability": "nonpayable",
      "type": "function"
    },
    {
      "inputs": [
        {
          "internalType": "address",
          "name": "newOwner",
          "type": "address"
        }
      ],
      "name": "transferOwnership",
      "outputs": [],
      "stateMutability": "nonpayable",
      "type": "function"
    }
  ],
  "bytecode": "0x608060405260405180604001604052806040518060600160405280602e815260200162002e1f602e913981526020016040518060600160405280602e815260200162002e4d602e913981525060099060026200005d929190620001d2565b503480156200006b57600080fd5b506040518060400160405280601c81526020017f4c4f47494b207820424c4d3a20526f636b6574204c61756e63686572000000008152506040518060400160405280600581526020017f4c474b524c0000000000000000000000000000000000000000000000000000008152508160009080519060200190620000f09291906200022c565b508060019080519060200190620001099291906200022c565b50505060006200011e620001ca60201b60201c565b905080600660006101000a81548173ffffffffffffffffffffffffffffffffffffffff021916908373ffffffffffffffffffffffffffffffffffffffff1602179055508073ffffffffffffffffffffffffffffffffffffffff16600073ffffffffffffffffffffffffffffffffffffffff167f8be0079c531659141344cd1fd0a4f28419497f9722a3daafe3b4186f6b6457e060405160405180910390a35042600881905550620003af565b600033905090565b826002810192821562000219579160200282015b8281111562000218578251829080519060200190620002079291906200022c565b5091602001919060010190620001e6565b5b509050620002289190620002bd565b5090565b8280546200023a906200034a565b90600052602060002090601f0160209004810192826200025e5760008555620002aa565b82601f106200027957805160ff1916838001178555620002aa565b82800160010185558215620002aa579182015b82811115620002a95782518255916020019190600101906200028c565b5b509050620002b99190620002e5565b5090565b5b80821115620002e15760008181620002d7919062000304565b50600101620002be565b5090565b5b8082111562000300576000816000905550600101620002e6565b5090565b50805462000312906200034a565b6000825580601f1062000326575062000347565b601f016020900490600052602060002090810190620003469190620002e5565b5b50565b600060028204905060018216806200036357607f821691505b602082108114156200037a576200037962000380565b5b50919050565b7f4e487b7100000000000000000000000000000000000000000000000000000000600052602260045260246000fd5b612a6080620003bf6000396000f3fe608060405234801561001057600080fd5b50600436106101165760003560e01c806370a08231116100a2578063a22cb46511610071578063a22cb465146102e1578063b88d4fde146102fd578063c87b56dd14610319578063e985e9c514610349578063f2fde38b1461037957610116565b806370a082311461026b578063715018a61461029b5780638da5cb5b146102a557806395d89b41146102c357610116565b80630bfbe4e7116100e95780630bfbe4e7146101b557806323b872dd146101d357806342842e0e146101ef5780635de6cf811461020b5780636352211e1461023b57610116565b806301ffc9a71461011b57806306fdde031461014b578063081812fc14610169578063095ea7b314610199575b600080fd5b61013560048036038101906101309190611cf3565b610395565b604051610142919061243c565b60405180910390f35b610153610477565b6040516101609190612457565b60405180910390f35b610183600480360381019061017e9190611d45565b610509565b60405161019091906123d5565b60405180910390f35b6101b360048036038101906101ae9190611cb7565b61058e565b005b6101bd6106a6565b6040516101ca9190612679565b60405180910390f35b6101ed60048036038101906101e89190611bb1565b6106de565b005b61020960048036038101906102049190611bb1565b61073e565b005b61022560048036038101906102209190611b4c565b61075e565b6040516102329190612679565b60405180910390f35b61025560048036038101906102509190611d45565b610807565b60405161026291906123d5565b60405180910390f35b61028560048036038101906102809190611b4c565b6108b9565b6040516102929190612679565b60405180910390f35b6102a3610971565b005b6102ad610aae565b6040516102ba91906123d5565b60405180910390f35b6102cb610ad8565b6040516102d89190612457565b60405180910390f35b6102fb60048036038101906102f69190611c7b565b610b6a565b005b61031760048036038101906103129190611c00565b610ceb565b005b610333600480360381019061032e9190611d45565b610d4d565b6040516103409190612457565b60405180910390f35b610363600480360381019061035e9190611b75565b610ef4565b604051610370919061243c565b60405180910390f35b610393600480360381019061038e9190611b4c565b610f88565b005b60007f80ac58cd000000000000000000000000000000000000000000000000000000007bffffffffffffffffffffffffffffffffffffffffffffffffffffffff1916827bffffffffffffffffffffffffffffffffffffffffffffffffffffffff1916148061046057507f5b5e139f000000000000000000000000000000000000000000000000000000007bffffffffffffffffffffffffffffffffffffffffffffffffffffffff1916827bffffffffffffffffffffffffffffffffffffffffffffffffffffffff1916145b80610470575061046f82611134565b5b9050919050565b6060600080546104869061289e565b80601f01602080910402602001604051908101604052809291908181526020018280546104b29061289e565b80156104ff5780601f106104d4576101008083540402835291602001916104ff565b820191906000526020600020905b8154815290600101906020018083116104e257829003601f168201915b5050505050905090565b60006105148261119e565b610553576040517f08c379a000000000000000000000000000000000000000000000000000000000815260040161054a906125b9565b60405180910390fd5b6004600083815260200190815260200160002060009054906101000a900473ffffffffffffffffffffffffffffffffffffffff169050919050565b600061059982610807565b90508073ffffffffffffffffffffffffffffffffffffffff168373ffffffffffffffffffffffffffffffffffffffff16141561060a576040517f08c379a000000000000000000000000000000000000000000000000000000000815260040161060190612639565b60405180910390fd5b8073ffffffffffffffffffffffffffffffffffffffff1661062961120a565b73ffffffffffffffffffffffffffffffffffffffff16148061065857506106578161065261120a565b610ef4565b5b610697576040517f08c379a000000000000000000000000000000000000000000000000000000000815260040161068e90612539565b60405180910390fd5b6106a18383611212565b505050565b60006018603c80600854426106bb91906127b4565b6106c59190612783565b6106cf9190612783565b6106d99190612783565b905090565b6106ef6106e961120a565b826112cb565b61072e576040517f08c379a000000000000000000000000000000000000000000000000000000000815260040161072590612659565b60405180910390fd5b6107398383836113a9565b505050565b61075983838360405180602001604052806000815250610ceb565b505050565b600061076861120a565b73ffffffffffffffffffffffffffffffffffffffff16610786610aae565b73ffffffffffffffffffffffffffffffffffffffff16146107dc576040517f08c379a00000000000000000000000000000000000000000000000000000000081526004016107d3906125d9565b60405180910390fd5b6107e66007611605565b60006107f2600761161b565b90506107fe8382611629565b80915050919050565b6000806002600084815260200190815260200160002060009054906101000a900473ffffffffffffffffffffffffffffffffffffffff169050600073ffffffffffffffffffffffffffffffffffffffff168173ffffffffffffffffffffffffffffffffffffffff1614156108b0576040517f08c379a00000000000000000000000000000000000000000000000000000000081526004016108a790612579565b60405180910390fd5b80915050919050565b60008073ffffffffffffffffffffffffffffffffffffffff168273ffffffffffffffffffffffffffffffffffffffff16141561092a576040517f08c379a000000000000000000000000000000000000000000000000000000000815260040161092190612559565b60405180910390fd5b600360008373ffffffffffffffffffffffffffffffffffffffff1673ffffffffffffffffffffffffffffffffffffffff168152602001908152602001600020549050919050565b61097961120a565b73ffffffffffffffffffffffffffffffffffffffff16610997610aae565b73ffffffffffffffffffffffffffffffffffffffff16146109ed576040517f08c379a00000000000000000000000000000000000000000000000000000000081526004016109e4906125d9565b60405180910390fd5b600073ffffffffffffffffffffffffffffffffffffffff16600660009054906101000a900473ffffffffffffffffffffffffffffffffffffffff1673ffffffffffffffffffffffffffffffffffffffff167f8be0079c531659141344cd1fd0a4f28419497f9722a3daafe3b4186f6b6457e060405160405180910390a36000600660006101000a81548173ffffffffffffffffffffffffffffffffffffffff021916908373ffffffffffffffffffffffffffffffffffffffff160217905550565b6000600660009054906101000a900473ffffffffffffffffffffffffffffffffffffffff16905090565b606060018054610ae79061289e565b80601f0160208091040260200160405190810160405280929190818152602001828054610b139061289e565b8015610b605780601f10610b3557610100808354040283529160200191610b60565b820191906000526020600020905b815481529060010190602001808311610b4357829003601f168201915b5050505050905090565b610b7261120a565b73ffffffffffffffffffffffffffffffffffffffff168273ffffffffffffffffffffffffffffffffffffffff161415610be0576040517f08c379a0000000000000000000000000000000000000000000000000000000008152600401610bd7906124f9565b60405180910390fd5b8060056000610bed61120a565b73ffffffffffffffffffffffffffffffffffffffff1673ffffffffffffffffffffffffffffffffffffffff16815260200190815260200160002060008473ffffffffffffffffffffffffffffffffffffffff1673ffffffffffffffffffffffffffffffffffffffff16815260200190815260200160002060006101000a81548160ff0219169083151502179055508173ffffffffffffffffffffffffffffffffffffffff16610c9a61120a565b73ffffffffffffffffffffffffffffffffffffffff167f17307eab39ab6107e8899845ad3d59bd9653f200f220920489ca2b5937696c3183604051610cdf919061243c565b60405180910390a35050565b610cfc610cf661120a565b836112cb565b610d3b576040517f08c379a0000000000000000000000000000000000000000000000000000000008152600401610d3290612659565b60405180910390fd5b610d4784848484611647565b50505050565b6060610d588261119e565b610d97576040517f08c379a0000000000000000000000000000000000000000000000000000000008152600401610d8e90612619565b60405180910390fd5b600042905060006018603c8060085485610db191906127b4565b610dbb9190612783565b610dc59190612783565b610dcf9190612783565b90506000600a82610de091906128d0565b905080600011158015610df35750600281105b610e26577f4e487b7100000000000000000000000000000000000000000000000000000000600052600160045260246000fd5b60098160028110610e60577f4e487b7100000000000000000000000000000000000000000000000000000000600052603260045260246000fd5b018054610e6c9061289e565b80601f0160208091040260200160405190810160405280929190818152602001828054610e989061289e565b8015610ee55780601f10610eba57610100808354040283529160200191610ee5565b820191906000526020600020905b815481529060010190602001808311610ec857829003601f168201915b50505050509350505050919050565b6000600560008473ffffffffffffffffffffffffffffffffffffffff1673ffffffffffffffffffffffffffffffffffffffff16815260200190815260200160002060008373ffffffffffffffffffffffffffffffffffffffff1673ffffffffffffffffffffffffffffffffffffffff16815260200190815260200160002060009054906101000a900460ff16905092915050565b610f9061120a565b73ffffffffffffffffffffffffffffffffffffffff16610fae610aae565b73ffffffffffffffffffffffffffffffffffffffff1614611004576040517f08c379a0000000000000000000000000000000000000000000000000000000008152600401610ffb906125d9565b60405180910390fd5b600073ffffffffffffffffffffffffffffffffffffffff168173ffffffffffffffffffffffffffffffffffffffff161415611074576040517f08c379a000000000000000000000000000000000000000000000000000000000815260040161106b90612499565b60405180910390fd5b8073ffffffffffffffffffffffffffffffffffffffff16600660009054906101000a900473ffffffffffffffffffffffffffffffffffffffff1673ffffffffffffffffffffffffffffffffffffffff167f8be0079c531659141344cd1fd0a4f28419497f9722a3daafe3b4186f6b6457e060405160405180910390a380600660006101000a81548173ffffffffffffffffffffffffffffffffffffffff021916908373ffffffffffffffffffffffffffffffffffffffff16021790555050565b60007f01ffc9a7000000000000000000000000000000000000000000000000000000007bffffffffffffffffffffffffffffffffffffffffffffffffffffffff1916827bffffffffffffffffffffffffffffffffffffffffffffffffffffffff1916149050919050565b60008073ffffffffffffffffffffffffffffffffffffffff166002600084815260200190815260200160002060009054906101000a900473ffffffffffffffffffffffffffffffffffffffff1673ffffffffffffffffffffffffffffffffffffffff1614159050919050565b600033905090565b816004600083815260200190815260200160002060006101000a81548173ffffffffffffffffffffffffffffffffffffffff021916908373ffffffffffffffffffffffffffffffffffffffff160217905550808273ffffffffffffffffffffffffffffffffffffffff1661128583610807565b73ffffffffffffffffffffffffffffffffffffffff167f8c5be1e5ebec7d5bd14f71427d1e84f3dd0314c0f7b2291e5b200ac8c7c3b92560405160405180910390a45050565b60006112d68261119e565b611315576040517f08c379a000000000000000000000000000000000000000000000000000000000815260040161130c90612519565b60405180910390fd5b600061132083610807565b90508073ffffffffffffffffffffffffffffffffffffffff168473ffffffffffffffffffffffffffffffffffffffff16148061138f57508373ffffffffffffffffffffffffffffffffffffffff1661137784610509565b73ffffffffffffffffffffffffffffffffffffffff16145b806113a0575061139f8185610ef4565b5b91505092915050565b8273ffffffffffffffffffffffffffffffffffffffff166113c982610807565b73ffffffffffffffffffffffffffffffffffffffff161461141f576040517f08c379a0000000000000000000000000000000000000000000000000000000008152600401611416906125f9565b60405180910390fd5b600073ffffffffffffffffffffffffffffffffffffffff168273ffffffffffffffffffffffffffffffffffffffff16141561148f576040517f08c379a0000000000000000000000000000000000000000000000000000000008152600401611486906124d9565b60405180910390fd5b61149a8383836116a3565b6114a5600082611212565b6001600360008573ffffffffffffffffffffffffffffffffffffffff1673ffffffffffffffffffffffffffffffffffffffff16815260200190815260200160002060008282546114f591906127b4565b925050819055506001600360008473ffffffffffffffffffffffffffffffffffffffff1673ffffffffffffffffffffffffffffffffffffffff168152602001908152602001600020600082825461154c919061272d565b92505081905550816002600083815260200190815260200160002060006101000a81548173ffffffffffffffffffffffffffffffffffffffff021916908373ffffffffffffffffffffffffffffffffffffffff160217905550808273ffffffffffffffffffffffffffffffffffffffff168473ffffffffffffffffffffffffffffffffffffffff167fddf252ad1be2c89b69c2b068fc378daa952ba7f163c4a11628f55a4df523b3ef60405160405180910390a4505050565b6001816000016000828254019250508190555050565b600081600001549050919050565b6116438282604051806020016040528060008152506116a8565b5050565b6116528484846113a9565b61165e84848484611703565b61169d576040517f08c379a000000000000000000000000000000000000000000000000000000000815260040161169490612479565b60405180910390fd5b50505050565b505050565b6116b2838361189a565b6116bf6000848484611703565b6116fe576040517f08c379a00000000000000000000000000000000000000000000000000000000081526004016116f590612479565b60405180910390fd5b505050565b60006117248473ffffffffffffffffffffffffffffffffffffffff16611a68565b1561188d578373ffffffffffffffffffffffffffffffffffffffff1663150b7a0261174d61120a565b8786866040518563ffffffff1660e01b815260040161176f94939291906123f0565b602060405180830381600087803b15801561178957600080fd5b505af19250505080156117ba57506040513d601f19601f820116820180604052508101906117b79190611d1c565b60015b61183d573d80600081146117ea576040519150601f19603f3d011682016040523d82523d6000602084013e6117ef565b606091505b50600081511415611835576040517f08c379a000000000000000000000000000000000000000000000000000000000815260040161182c90612479565b60405180910390fd5b805181602001fd5b63150b7a0260e01b7bffffffffffffffffffffffffffffffffffffffffffffffffffffffff1916817bffffffffffffffffffffffffffffffffffffffffffffffffffffffff191614915050611892565b600190505b949350505050565b600073ffffffffffffffffffffffffffffffffffffffff168273ffffffffffffffffffffffffffffffffffffffff16141561190a576040517f08c379a000000000000000000000000000000000000000000000000000000000815260040161190190612599565b60405180910390fd5b6119138161119e565b15611953576040517f08c379a000000000000000000000000000000000000000000000000000000000815260040161194a906124b9565b60405180910390fd5b61195f600083836116a3565b6001600360008473ffffffffffffffffffffffffffffffffffffffff1673ffffffffffffffffffffffffffffffffffffffff16815260200190815260200160002060008282546119af919061272d565b92505081905550816002600083815260200190815260200160002060006101000a81548173ffffffffffffffffffffffffffffffffffffffff021916908373ffffffffffffffffffffffffffffffffffffffff160217905550808273ffffffffffffffffffffffffffffffffffffffff16600073ffffffffffffffffffffffffffffffffffffffff167fddf252ad1be2c89b69c2b068fc378daa952ba7f163c4a11628f55a4df523b3ef60405160405180910390a45050565b600080823b905060008111915050919050565b6000611a8e611a89846126c5565b612694565b905082815260208101848484011115611aa657600080fd5b611ab184828561285c565b509392505050565b600081359050611ac8816129ce565b92915050565b600081359050611add816129e5565b92915050565b600081359050611af2816129fc565b92915050565b600081519050611b07816129fc565b92915050565b600082601f830112611b1e57600080fd5b8135611b2e848260208601611a7b565b91505092915050565b600081359050611b4681612a13565b92915050565b600060208284031215611b5e57600080fd5b6000611b6c84828501611ab9565b91505092915050565b60008060408385031215611b8857600080fd5b6000611b9685828601611ab9565b9250506020611ba785828601611ab9565b9150509250929050565b600080600060608486031215611bc657600080fd5b6000611bd486828701611ab9565b9350506020611be586828701611ab9565b9250506040611bf686828701611b37565b9150509250925092565b60008060008060808587031215611c1657600080fd5b6000611c2487828801611ab9565b9450506020611c3587828801611ab9565b9350506040611c4687828801611b37565b925050606085013567ffffffffffffffff811115611c6357600080fd5b611c6f87828801611b0d565b91505092959194509250565b60008060408385031215611c8e57600080fd5b6000611c9c85828601611ab9565b9250506020611cad85828601611ace565b9150509250929050565b60008060408385031215611cca57600080fd5b6000611cd885828601611ab9565b9250506020611ce985828601611b37565b9150509250929050565b600060208284031215611d0557600080fd5b6000611d1384828501611ae3565b91505092915050565b600060208284031215611d2e57600080fd5b6000611d3c84828501611af8565b91505092915050565b600060208284031215611d5757600080fd5b6000611d6584828501611b37565b91505092915050565b611d77816127e8565b82525050565b611d86816127fa565b82525050565b6000611d97826126f5565b611da1818561270b565b9350611db181856020860161286b565b611dba816129bd565b840191505092915050565b6000611dd082612700565b611dda818561271c565b9350611dea81856020860161286b565b611df3816129bd565b840191505092915050565b6000611e0b60328361271c565b91507f4552433732313a207472616e7366657220746f206e6f6e20455243373231526560008301527f63656976657220696d706c656d656e74657200000000000000000000000000006020830152604082019050919050565b6000611e7160268361271c565b91507f4f776e61626c653a206e6577206f776e657220697320746865207a65726f206160008301527f64647265737300000000000000000000000000000000000000000000000000006020830152604082019050919050565b6000611ed7601c8361271c565b91507f4552433732313a20746f6b656e20616c7265616479206d696e746564000000006000830152602082019050919050565b6000611f1760248361271c565b91507f4552433732313a207472616e7366657220746f20746865207a65726f2061646460008301527f72657373000000000000000000000000000000000000000000000000000000006020830152604082019050919050565b6000611f7d60198361271c565b91507f4552433732313a20617070726f766520746f2063616c6c6572000000000000006000830152602082019050919050565b6000611fbd602c8361271c565b91507f4552433732313a206f70657261746f7220717565727920666f72206e6f6e657860008301527f697374656e7420746f6b656e00000000000000000000000000000000000000006020830152604082019050919050565b600061202360388361271c565b91507f4552433732313a20617070726f76652063616c6c6572206973206e6f74206f7760008301527f6e6572206e6f7220617070726f76656420666f7220616c6c00000000000000006020830152604082019050919050565b6000612089602a8361271c565b91507f4552433732313a2062616c616e636520717565727920666f7220746865207a6560008301527f726f2061646472657373000000000000000000000000000000000000000000006020830152604082019050919050565b60006120ef60298361271c565b91507f4552433732313a206f776e657220717565727920666f72206e6f6e657869737460008301527f656e7420746f6b656e00000000000000000000000000000000000000000000006020830152604082019050919050565b600061215560208361271c565b91507f4552433732313a206d696e7420746f20746865207a65726f20616464726573736000830152602082019050919050565b6000612195602c8361271c565b91507f4552433732313a20617070726f76656420717565727920666f72206e6f6e657860008301527f697374656e7420746f6b656e00000000000000000000000000000000000000006020830152604082019050919050565b60006121fb60208361271c565b91507f4f776e61626c653a2063616c6c6572206973206e6f7420746865206f776e65726000830152602082019050919050565b600061223b60298361271c565b91507f4552433732313a207472616e73666572206f6620746f6b656e2074686174206960008301527f73206e6f74206f776e00000000000000000000000000000000000000000000006020830152604082019050919050565b60006122a1602f8361271c565b91507f4552433732314d657461646174613a2055524920717565727920666f72206e6f60008301527f6e6578697374656e7420746f6b656e00000000000000000000000000000000006020830152604082019050919050565b600061230760218361271c565b91507f4552433732313a20617070726f76616c20746f2063757272656e74206f776e6560008301527f72000000000000000000000000000000000000000000000000000000000000006020830152604082019050919050565b600061236d60318361271c565b91507f4552433732313a207472616e736665722063616c6c6572206973206e6f74206f60008301527f776e6572206e6f7220617070726f7665640000000000000000000000000000006020830152604082019050919050565b6123cf81612852565b82525050565b60006020820190506123ea6000830184611d6e565b92915050565b60006080820190506124056000830187611d6e565b6124126020830186611d6e565b61241f60408301856123c6565b81810360608301526124318184611d8c565b905095945050505050565b60006020820190506124516000830184611d7d565b92915050565b600060208201905081810360008301526124718184611dc5565b905092915050565b6000602082019050818103600083015261249281611dfe565b9050919050565b600060208201905081810360008301526124b281611e64565b9050919050565b600060208201905081810360008301526124d281611eca565b9050919050565b600060208201905081810360008301526124f281611f0a565b9050919050565b6000602082019050818103600083015261251281611f70565b9050919050565b6000602082019050818103600083015261253281611fb0565b9050919050565b6000602082019050818103600083015261255281612016565b9050919050565b600060208201905081810360008301526125728161207c565b9050919050565b60006020820190508181036000830152612592816120e2565b9050919050565b600060208201905081810360008301526125b281612148565b9050919050565b600060208201905081810360008301526125d281612188565b9050919050565b600060208201905081810360008301526125f2816121ee565b9050919050565b600060208201905081810360008301526126128161222e565b9050919050565b6000602082019050818103600083015261263281612294565b9050919050565b60006020820190508181036000830152612652816122fa565b9050919050565b6000602082019050818103600083015261267281612360565b9050919050565b600060208201905061268e60008301846123c6565b92915050565b6000604051905081810181811067ffffffffffffffff821117156126bb576126ba61298e565b5b8060405250919050565b600067ffffffffffffffff8211156126e0576126df61298e565b5b601f19601f8301169050602081019050919050565b600081519050919050565b600081519050919050565b600082825260208201905092915050565b600082825260208201905092915050565b600061273882612852565b915061274383612852565b9250827fffffffffffffffffffffffffffffffffffffffffffffffffffffffffffffffff0382111561277857612777612901565b5b828201905092915050565b600061278e82612852565b915061279983612852565b9250826127a9576127a8612930565b5b828204905092915050565b60006127bf82612852565b91506127ca83612852565b9250828210156127dd576127dc612901565b5b828203905092915050565b60006127f382612832565b9050919050565b60008115159050919050565b60007fffffffff0000000000000000000000000000000000000000000000000000000082169050919050565b600073ffffffffffffffffffffffffffffffffffffffff82169050919050565b6000819050919050565b82818337600083830152505050565b60005b8381101561288957808201518184015260208101905061286e565b83811115612898576000848401525b50505050565b600060028204905060018216806128b657607f821691505b602082108114156128ca576128c961295f565b5b50919050565b60006128db82612852565b91506128e683612852565b9250826128f6576128f5612930565b5b828206905092915050565b7f4e487b7100000000000000000000000000000000000000000000000000000000600052601160045260246000fd5b7f4e487b7100000000000000000000000000000000000000000000000000000000600052601260045260246000fd5b7f4e487b7100000000000000000000000000000000000000000000000000000000600052602260045260246000fd5b7f4e487b7100000000000000000000000000000000000000000000000000000000600052604160045260246000fd5b6000601f19601f8301169050919050565b6129d7816127e8565b81146129e257600080fd5b50565b6129ee816127fa565b81146129f957600080fd5b50565b612a0581612806565b8114612a1057600080fd5b50565b612a1c81612852565b8114612a2757600080fd5b5056fea2646970667358221220180626aaeed5dd19ab1f8dadc7c33d54192f49be575b31eab07ed79d47b8984a64736f6c63430008000033516d51723547506662626f564d6b6e7461425959534d6f537a523239625a4d47504e65666f6e34476943455a7a6d516d4e61774b474e5178776554457a4b41444d6f71586241737943445952334b57627343737472617a4b62774643",
  "linkReferences": {},
  "deployedLinkReferences": {}
}